:020000041000EA
:1000000000B5324B212058609868022188439860DF
:10001000D860186158612E4B002199600221596106
:100020000121F02299502B49196001219960352056
:1000300000F044F80222904214D00621196600F024
:1000400034F8196E01211966002018661A6600F04E
:100050002CF8196E196E196E052000F02FF8012189
:100060000842F9D1002199601B49196000215960AB
:100070001A491B48016001219960EB211966A021F2
:10008000196600F012F800219960164914480160C1
:100090000121996001BC002800D000471248134993
:1000A000086003C880F30888084703B5996A0420EC
:1000B0000142FBD001200142F8D103BD02B5186610
:1000C0001866FFF7F2FF186E186E02BD00000240BE
:1000D000000000180000070000035F00212200005C
:1000E000F4000018222000A00001001008ED00E03C
:1000F00000000000000000000000000074B24E7A12
:1001000000200420F7010010CB010010CD010010E9
:10011000C9010010C9010010C9010010C901001077
:10012000C9010010C9010010C9010010A586001006
:10013000C9010010C9010010C18500101D87001001
:10014000C1010010C1010010C1010010C101001067
:10015000C1010010C1010010C1010010C101001057
:10016000C1010010C1010010C1010010C101001047
:10017000C1010010C1010010C1010010C101001037
:10018000C1010010C1010010C1010010C101001027
:10019000C1010010C1010010C1010010C101001017
:1001A000C1010010C1010010C1010010C101001007
:1001B000C1010010C1010010C1010010C1010010F7
:1001C000EFF30580103800BE00BE00BE00BE00BECA
:1001D00000BE00BEF2EB887140CA001060CA001079
:1001E0003802001090A31AE71E481F49086006C88D
:1001F00081F3088810471D480068002801D019487D
:10020000F3E70DA40ECC002902D000F012F8F9E7B4
:100210001749184A002000E001C19142FCD116495B
:100220008847164988471649884700BEFDE701C937
:1002300001C29A42FBD3704760CA0010C000002080
:100240009016002030E00010000004200000042080
:1002500030E0001000100420001004200000000016
:10026000704700000000000008ED00E0000000D032
:1002700090160020207D02208D590010910600105C
:1002800085590010F8B5C04606480749091A8B1071
:10029000C90FC91810B5491003D0044B002B00D06A
:1002A000984710BD90160020901600200000000016
:1002B000054B10B5002B03D00449054800E000BFF2
:1002C000FFF7E2FF10BDC04600000000B437002079
:1002D00038B6001030B589B009F06CFE0B4C0C4DEF
:1002E00001900AE000230022206802A908F05CFDCA
:1002F000FA2101A8490009F0BFFD02A800F082FA26
:100300000028EFD1280005F0CDFCF1E79C7C02200D
:1003100038B60010F0B5DE46454657464E46E0B5C5
:100320000020A1B000F002FC642001F005FC914B1C
:10033000F02218000593904BF0210093002301F068
:10034000BDFA412001F0EAFA8C4801F013FB8C4B16
:100350008C4D99468C4B1AAC09938C4B0A938C4B61
:100360000C938C4B0D938C4B10938C4B11938C4BAB
:1003700013938C4B15938C4B17938C4B0B938C4B8B
:100380000E938C4B0F938C4B12938C4B14938C4B82
:1003900016938C4B98468C4B06938C4B9B468C4B00
:1003A0000793FC23DB009A465B46AB4608932BE0A1
:1003B000434601221868524219A908F013FF012888
:1003C0001FD1199803F0B2FD089D00900191069A83
:1003D0004021280005F07CFA5346019300232A00AF
:1003E000C3215A2000935B4601F030FB642009F0E2
:1003F0009DFD199803F09AFD02000B00079805F087
:10040000D5FC059801F032F9002001F077FAFC20C4
:10041000C00001F0AFFA4B46012221001868524299
:1004200008F0E0FE0128C3D1206803F07FFD0A9E9A
:1004300000900191099A1021300005F049FA002539
:1004400053463200019341215B465A20009501F04A
:10045000FDFA606803F06AFD0D9E009001910C9A10
:100460001021300005F034FA5346320001935A212E
:100470005B465A20009501F0E9FAA06803F056FDAA
:10048000119E00900191109A1021300005F020FA81
:1004900053463200019369215B465A20009501F0D2
:1004A000D5FAE06803F042FD159E00900191139A81
:1004B0001021300005F00CFA5346320001938221DE
:1004C0005B465A20009501F0C1FA206903F02EFD29
:1004D0000B9E00900191179A1021300005F0F8F959
:1004E0005346320001939B215B465A20009501F050
:1004F000ADFA606903F01AFD0F9E009001910E9A0B
:100500001021300005F0E4F9534632000193B42184
:100510005B465A20009501F099FA206803F006FD29
:100520000600A0680F0003F001FD029003916068CF
:1005300003F0FCFC32003B0000900191129805F0A2
:1005400035FC149805F0AEFBE06803F0EFFC060004
:1005500060690F0003F0EAFC02900391206903F048
:10056000E5FC3200009001913B00169805F01EFC5E
:100570001EE7C046F8390020FFFF000007FC00001E
:100580009C7C02205010002048B60010CC21002096
:1005900054B60010DC21002060B60010EC210020D1
:1005A0006CB600107433002078B60010843300203D
:1005B00084B600109433002090B60010A8B6001046
:1005C000CCB600103C7C0220E4B60010882100204C
:1005D000ECB60010F0B54F464646D646254BC0B5A2
:1005E0009846254B254E9946254B34009A46254D75
:1005F000254F82B0012201210020524209F076FFEE
:100600000028F7D02B78012B20D02B78002BF1D1AC
:1006100029784046C9B205F0C9FB50461B4905F090
:10062000C5FB0020194B1A88023380189C42FAD16E
:1006300003F05AFCEA21890503F04FFC00230190E6
:100640000022386801A908F0AFFBD3E729784046BB
:10065000C9B205F0ABFB3100484605F0A7FB80228C
:10066000330000201201B1181A8802338018994211
:10067000FAD1DDE7FCB6001010B700105C2B0020AB
:1006800020B700101F7D02203C7C02205C2300204C
:1006900010B582B005F0B8FA02E0642002F04CF91F
:1006A00005F01AFE0028F8D0214805F0FBFAFA20E0
:1006B000C00002F041F900F053F81E4805F0F2FACC
:1006C00001F05EFA1C4805F0EDFA00F09DF90022F9
:1006D0001821102008F01AFB184B00221860042182
:1006E000102008F013FB164B002418608022022310
:1006F00014490093520000231348019409F09AFA18
:10070000124BB52201930323114900939200002359
:10071000104809F08FFA0123C0220F4900931201FB
:1007200000230E48019409F085FA09F095FAFEE7D6
:1007300030B7001038B7001058B700109C7C02206A
:100740003C7C022078B70010D5020010C8210020A0
:1007500084B70010D505001098B7001015030010DD
:1007600030B50025204C83B0200020490AF0DAFB88
:100770000321062001F07EFA0321072001F07AFA16
:1007800000220121062001F08FFA0022012107201A
:1007900001F08AFA02236B212000154A00950AF025
:1007A000E9FB02236B212000124A00950AF0E2FBCC
:1007B00002236B212000104A00950AF0DBFB022384
:1007C0006B2120000D4A00950AF0D4FB02236B2117
:1007D0000B4A200000950AF0CDFBFA20400002F001
:1007E000ABF803B030BDC04618110020A086010050
:1007F0004810002044100020401000203C10002031
:1008000038100020F0B5D6464F464646C0B5454B99
:1008100084B01B7802AA13700123434C05006B219E
:10082000200000930AF0A6FB012806D0002004B0A7
:10083000E0BCBA46B146A846F0BD00260E22012310
:100840006B21200000966A440AF09EFB0128EDD13E
:100850006B469B7B1842E9D0344B03AA1B786B2173
:1008600013700090012320000AF084FB0128DDD1E1
:100870000F2201236B21200000966A440AF084FBBA
:100880000128D3D1009001236B212000284A0AF0CF
:1008900071FB0130CAD0274F10233A006B21200092
:1008A00000960AF071FB0130C0D00222BB5E9A466E
:1008B0000422BB5E99460622BB5E98460023F85E82
:1008C00003F012FBE621890503F007FB0823FE5E17
:1008D0000A23FC5E2860504603F006FBE6218905EA
:1008E00003F0FBFA6860484603F0FEFAE62189054A
:1008F00003F0F3FAA860404603F0F6FA0E4903F05D
:10090000D8FAE860300003F0EFFA0B4903F0D1FAAF
:100910002861200003F0E8FA074903F0CAFA686189
:10092000012084E7A8B7001018110020ACB7001010
:100930004C100020E83900206F128342F0B50124EA
:1009400021004746CE46284B0022A0251B6880B5D3
:100950009940264F83B00192ED05E85901422AD112
:10096000234BEA591B689C40144204D103B0C0BC1D
:10097000B946B046F0BD1F4A1F4E904601AA9146A7
:10098000A0211A4AC9058C50012241460A70A022B2
:10099000D20594469B01194A63445A6000214A4695
:1009A000306809F0FBFD019B002BDFD08022144B47
:1009B00052051A60DAE7AC46E9510E499B010A700C
:1009C000104A63440C4E5A6001AB1A0088463068E6
:1009D0000021994609F0E2FD054BEA591B689C404D
:1009E0001442E0D0CCE7C0465C3300200C04000089
:1009F000603300201F7D0220C82100205C2B0020D6
:100A000004ED00E05C230020F0B5C64600B50AF016
:100A100063FB1F211A2001F02DF9002200211A206A
:100A200001F042F900211A2001F052F9E0212F4A89
:100A3000C901136801200B402D492E4F0B602E4B2E
:100A400019682E4B4B402E490B402E490B602E4B04
:100A500013610AF05DFB2D4C206001200AF058FB69
:100A600026682B4BF5022A0018603A40C3021A434D
:100A70003B402B43A025ED05AC4680272549264D5C
:100A80000A431943B30163441D60AC46234DFF0084
:100A90005D609F601A61A022D20590466246830184
:100AA00043441A6080221201944665445D6001252A
:100AB0002A00B2409F601961194B1A491A602A0036
:100AC00082400B201A6001F037FA01210B2001F05F
:100AD000FBF9236842469D408623DB00D55008225F
:100AE000114B1A6080BCB846F0BDC04600C004403F
:100AF00000D00440FD0700FF08C0044009000001C9
:100B00000F00000F08D00440000077015C33002084
:100B100060330020250012000CC004405C2300203C
:100B2000042400503D09001000E0044010B504000A
:100B300001210C2000F0DEFF642001F01DF80021EF
:100B40000C2000F0D7FF642001F016F801210C20E2
:100B500000F0D0FF0021092000F0CCFF642001F05C
:100B60000BF8FE4B00211C71621E94415F2264420F
:100B70009443FB4A08201A6000F0BCFF362000F0C6
:100B8000C3FFC8340121082000F0B4FF200000F0AA
:100B9000BBFF0021082000F0ADFFEF2000F0B4FF04
:100BA0000021082000F0A6FFEB2000F0ADFF01219E
:100BB000082000F09FFF142000F0A6FF002108206D
:100BC00000F098FFFE2000F09FFF0021082000F0B9
:100BD00091FFEF2000F098FF0021082000F08AFF2D
:100BE000EB2000F091FF0121082000F083FF14208A
:100BF00000F08AFF0021082000F07CFF842000F034
:100C000083FF0121082000F075FF402000F07CFFE9
:100C10000021082000F06EFF852000F075FF012103
:100C2000082000F067FFFF2000F06EFF0021082081
:100C300000F060FF862000F067FF0121082000F02F
:100C400059FFFF2000F060FF0021082000F052FF54
:100C5000872000F059FF0121082000F04BFFFF2002
:100C600000F052FF0021082000F044FF882000F02F
:100C70004BFF0121082000F03DFF0A2000F044FF57
:100C80000021082000F036FF892000F03DFF0121FF
:100C9000082000F02FFF212000F036FF002108205F
:100CA00000F028FF8A2000F02FFF0121082000F02B
:100CB00021FF002000F028FF0021082000F01AFF8B
:100CC0008B2000F021FF0121082000F013FF80207D
:100CD00000F01AFF0021082000F00CFF8C2000F02B
:100CE00013FF0121082000F005FF012000F00CFF98
:100CF0000021082000F0FEFE8D2000F005FF0121FC
:100D0000082000F0F7FE012000F0FEFE0021082080
:100D100000F0F0FE8E2000F0F7FE0121082000F028
:100D2000E9FEFF2000F0F0FE0021082000F0E2FEC6
:100D30008F2000F0E9FE0121082000F0DBFEFF20FB
:100D400000F0E2FE0021082000F0D4FEB62000F002
:100D5000DBFE0121082000F0CDFE002000F0D4FED3
:100D60000121082000F0C6FE202000F0CDFE002169
:100D7000082000F0BFFE362000F0C6FE012108204A
:100D800000F0B8FE082000F0BFFE0021082000F0AF
:100D9000B1FE3A2000F0B8FE0121082000F0AAFEC2
:100DA000052000F0B1FE0021082000F0A3FE9020F5
:100DB00000F0AAFE0121082000F09CFE082000F0AF
:100DC000A3FE0121082000F095FE082000F09CFE03
:100DD0000121082000F08EFE082000F095FE012180
:100DE000082000F087FE082000F08EFE0021082079
:100DF00000F080FEBD2000F087FE0121082000F0F9
:100E000079FE062000F080FE0021082000F072FE2E
:100E1000BC2000F079FE0121082000F06BFE0020CC
:100E200000F072FE0021082000F064FEFF2000F0B8
:100E30006BFE0121082000F05DFE602000F064FEE2
:100E40000121082000F056FE012000F05DFE012186
:100E5000082000F04FFE042000F056FE002108207C
:100E600000F048FEC32000F04FFE0121082000F0F2
:100E700041FE132000F048FE0021082000F03AFE59
:100E8000C42000F041FE0121082000F033FE1320B1
:100E900000F03AFE0021082000F02CFEC92000F0EE
:100EA00033FE0121082000F025FE222000F02CFE58
:100EB0000021082000F01EFEBE2000F025FE0121CA
:100EC000082000F017FE112000F01EFE002108206F
:100ED00000F010FEE12000F017FE0121082000F0D4
:100EE00009FE102000F010FE0121082000F002FE93
:100EF0000E2000F009FE0021082000F0FBFDDF209D
:100F000000F002FE0121082000F0F4FD212000F095
:100F1000FBFD0121082000F0EDFD0C2000F0F4FDA8
:100F20000121082000F0E6FD022000F0EDFD002187
:100F3000082000F0DFFDF02000F0E6FD0121082090
:100F400000F0D8FD452000F0DFFD0121082000F071
:100F5000D1FD092000F0D8FD012103E0681A00202E
:100F6000F000F000082000F0C5FD082000F0CCFDE6
:100F70000121082000F0BEFD082000F0C5FD012180
:100F8000082000F0B7FD262000F0BEFD012108205A
:100F900000F0B0FD2A2000F0B7FD0021082000F08D
:100FA000A9FDF12000F0B0FD0121082000F0A2FD14
:100FB000432000F0A9FD0121082000F09BFD7020D6
:100FC00000F0A2FD0121082000F094FD722000F045
:100FD0009BFD0121082000F08DFD362000F094FDDE
:100FE0000121082000F086FD372000F08DFD012151
:100FF000082000F07FFD6F2000F086FD0021082012
:1010000000F078FDF22000F07FFD0121082000F0C3
:1010100071FD452000F078FD0121082000F06AFDF7
:10102000092000F071FD0121082000F063FD082077
:1010300000F06AFD0121082000F05CFD082000F0AE
:1010400063FD0121082000F055FD262000F05CFD25
:101050000121082000F04EFD2A2000F055FD00215E
:10106000082000F047FDF32000F04EFD012108208C
:1010700000F040FD432000F047FD0121082000F072
:1010800039FD702000F040FD0121082000F032FD04
:10109000722000F039FD0121082000F02BFD3620E0
:1010A00000F032FD0121082000F024FD372000F07F
:1010B0002BFD0121082000F01DFD6F2000F024FD14
:1010C0000021082000F016FDED2000F01DFD01219B
:1010D000082000F00FFD1B2000F016FD0121082064
:1010E00000F008FD0B2000F00FFD0021082000F0AB
:1010F00001FDAE2000F008FD0121082000F0FAFCFF
:10110000772000F001FD0021082000F0F3FCCD2045
:1011100000F0FAFC0121082000F0ECFC632000F054
:10112000F3FC0021082000F0E5FC702000F0ECFC4E
:101130000121082000F0DEFC072000F0E5FC012181
:10114000082000F0D7FC072000F0DEFC0121082079
:1011500000F0D0FC042000F0D7FC0121082000F0B2
:10116000C9FC0E2000F0D0FC0121082000F0C2FCD8
:101170000F2000F0C9FC0121082000F0BBFC092071
:1011800000F0C2FC0121082000F0B4FC072000F0B0
:10119000BBFC0121082000F0ADFC082000F0B4FCED
:1011A0000121082000F0A6FC032000F0ADFC002186
:1011B000082000F09FFCE82000F0A6FC0121082098
:1011C00000F098FC342000F09FFC0021082000F083
:1011D00091FC622000F098FC0121082000F08AFCBC
:1011E000182000F091FC0121082000F083FC0D2064
:1011F00000F08AFC0121082000F07CFC712000F046
:1012000083FC0121082000F075FCED2000F07CFC3F
:101210000121082000F06EFC702000F075FC012117
:10122000082000F067FC702000F06EFC012108200F
:1012300000F060FC182000F067FC0121082000F09D
:1012400059FC0F2000F060FC0121082000F052FC46
:10125000712000F059FC0121082000F04BFCEF2028
:1012600000F052FC0121082000F044FC702000F046
:101270004BFC0121082000F03DFC702000F044FCF4
:101280000021082000F036FC632000F03DFC012125
:10129000082000F02FFC182000F036FC0121082067
:1012A00000F028FC112000F02FFC0121082000F0A4
:1012B00021FC712000F028FC0121082000F01AFC1C
:1012C000F12000F021FC0121082000F013FC702027
:1012D00000F01AFC0121082000F00CFC702000F046
:1012E00013FC0121082000F005FC182000F00CFC84
:1012F0000121082000F0FEFB132000F005FC012175
:10130000082000F0F7FB712000F0FEFB012108200F
:1013100000F0F0FBF32000F0F7FB0121082000F0C3
:10132000E9FB702000F0F0FB0121082000F0E2FB57
:10133000702000F0E9FB0021082000F0DBFB6420B6
:1013400000F0E2FB0121082000F0D4FB282000F08F
:10135000DBFB0121082000F0CDFB292000F0D4FBAD
:101360000121082000F0C6FBF12000F0CDFB012197
:10137000082000F0BFFB012000F0C6FB012108207F
:1013800000F0B8FBF12000F0BFFB0121082000F0C5
:10139000B1FB002000F0B8FB0121082000F0AAFBFF
:1013A000072000F0B1FB0021082000F0A3FB66201D
:1013B00000F0AAFB0121082000F09CFB3C2000F07B
:1013C000A3FB0121082000F095FB002000F09CFB0E
:1013D0000121082000F08EFBCD2000F095FB0121BB
:1013E000082000F087FB672000F08EFB0121082019
:1013F00000F080FB452000F087FB0121082000F071
:1014000079FB452000F080FB0121082000F072FBF1
:10141000102000F079FB0121082000F06BFB002078
:1014200000F072FB0121082000F064FB002000F0B6
:101430006BFB0121082000F05DFB002000F064FB45
:101440000021082000F056FB672000F05DFB012121
:10145000082000F04FFB002000F056FB012108207F
:1014600000F048FB3C2000F04FFB0121082000F079
:1014700041FB002000F048FB0121082000F03AFB6E
:10148000002000F041FB0121082000F033FB002088
:1014900000F03AFB0121082000F02CFB012000F0B5
:1014A00033FB0121082000F025FB542000F02CFB29
:1014B0000121082000F01EFB102000F025FB012177
:1014C000082000F017FB322000F01EFB012108204D
:1014D00000F010FB982000F017FB0021082000F01E
:1014E00009FB742000F010FB0121082000F002FB32
:1014F000102000F009FB0121082000F0FBFA8520F4
:1015000000F002FB0121082000F0F4FA802000F036
:10151000FBFA0121082000F0EDFA002000F0F4FAB7
:101520000121082000F0E6FA002000F0EDFA012188
:10153000082000F0DFFA4E2000F0E6FA0121082032
:1015400000F0D8FA002000F0DFFA0021082000F0B7
:10155000D1FA982000F0D8FA0121082000F0CAFA48
:101560003E2000F0D1FA0121082000F0C3FA072044
:1015700000F0CAFA0021082000F0BCFA352000F083
:10158000C3FA0021082000F0B5FA212000F0BCFACF
:101590000021082000F0AEFA112000F0B5FA782002
:1015A00000F0EAFA0021082000F0A4FA292000F057
:1015B000ABFA142000F0E0FA10BDC046F8B51400F4
:1015C00007000E001D000021082000F093FA2A20D9
:1015D00000F09AFA0121082000F08CFA002000F0B7
:1015E00093FA013C0121082000F084FAF8B2271296
:1015F00000F08AFAFFB20121082000F07BFA3800DF
:1016000000F082FA0121082000F074FAE0B200F044
:101610007BFA0021082000F06DFA2B2000F074FA0C
:101620000121082000F066FA002000F06DFA012187
:10163000082000F05FFAF0B200F066FA01210820FD
:1016400000F058FA380000F05FFA013D012108204F
:1016500000F050FAE8B200F057FA0021082000F03C
:1016600049FA2C2000F050FAF8BDC04670B5F023BE
:101670000400F02200210020FFF7A0FF0121082034
:1016800000F038FAE1235B02E518F0212000E13494
:101690004900FF3400F046FAAC42F6D170BDC046B6
:1016A00070B5464BDC89B42C3DD032D8002C06D026
:1016B0005A2C1CD11C89013C641A0100A0B21C8A5E
:1016C000022C20D014D8002C21D01C89651E281A89
:1016D00080B284420BD35C898C4208D3DC8A022C12
:1016E0002AD0042C36D0102C53D0412C46D070BDBB
:1016F000032CFCD11C89651E281A5D8980B2013D2E
:10170000691A89B2E5E75C89013C611A89B21C89D2
:10171000DFE787256D00AC42E9D15C89013C241AE2
:101720000800A1B2CBE71C89013C201A5C8980B279
:10173000013C611A89B2C2E75A8A1C684A43C1084F
:1017400089B252180721802301400B41A15C0B4351
:10175000A354CCE75C8A1D680323C1266143840837
:10176000184040007642134006419B010341A4B259
:1017700009196C5C344023436B54B8E75C8A400021
:10178000614309181868140A44541B685B185A709E
:10179000ADE75C8A1D68614344080123A4B20919BE
:1017A000F12418408000644204416B5C1C400F230C
:1017B00013401B01034123436B5498E7701A002028
:1017C000F0B5454657464E46DE469946E0B587B0E9
:1017D000019110A90B8811A902930B88059003931E
:1017E0004B469988D88807230B405D1EAB41203AB1
:1017F0004243CD085B195A434B461F680023BF186C
:101800000493002851D02C4B984600294DD0072333
:101810009A46802300259B46059E17E09E420BD8E2
:1018200043460198DB88834206D3039A01003000C7
:10183000FFF736FF4B469988073C63425C41013510
:101840000136ADB23F19B6B28D4211D25446584658
:101850002C40434620413A789B881042DED19E427C
:10186000EAD843460198DB888342E5D3029ADDE754
:101870004B465246DB880A420BD0049A01370132AC
:1018800092B204929A4210D2019C0134A3B2019305
:10189000BFE7049A013292B204929A4205D2019CA7
:1018A0000134A3B201930029B1D107B0F0BCBB460B
:1018B000B246A946A046F0BD701A002030B56C466D
:1018C000A5890D4C206002202181E0826281A581E2
:1018D000C8084D0700D0013060820020A282E38159
:1018E0002082002B04D0B42B02D00B0011001A0070
:1018F000E280A18030BDC046701A0020002807D0C9
:101900005A2805D0B42803D087235B00984201D120
:10191000014BD8817047C046701A002002280ED0B3
:10192000042804D0102819D0412811D07047104B3A
:101930001A89D8829108920707D15982F6E70C4B91
:101940001A89D882D1085207F7D001315982EDE7C0
:10195000074B1A89D88252005A82E7E701230449CB
:101960000A89C882134052089B184B82DEE7C046A2
:10197000701A0020F0B5334C334BE18A8A1E1600F2
:101980001E401A4204D010291BD0412939D0F0BD85
:10199000A38A002BFBD00025638AC0B2002BF6D0AF
:1019A00000226B4321688918C8540132638A91B2BE
:1019B0008B42F6D80136A28AB6B2B242E7D90135D7
:1019C000ECE7A38A002BE2D00022002694460F27E2
:1019D000638A002BDBD00022734321683840050165
:1019E00089184519CD540132638A91B28B42F3D8DC
:1019F0006246013292B29446A28A6245C7D9013644
:101A0000E7E7A38A002BC2D0002500272389060A16
:101A1000C0B2002BBBD00022638A51006B435B181D
:101A200021680132CE542168CB185870238991B2B5
:101A30008B42F1D80137A28ABFB2BA42A7D9013589
:101A4000E7E7C046701A0020FDFF0000F0B55746DA
:101A5000DE464E464546E0B587B0984610AB1B883B
:101A60008B46049311AB1B8882460593204B1700CD
:101A700099889946814233D3D888584530D3127813
:101A8000002A2DD043465D469B885446039703E0C9
:101A9000494648468988C0884646E718F6888F42F6
:101AA00002DD5446AD19ADB2AE19864201DD5D4688
:101AB00054468C420CD885420AD8049B29000193D5
:101AC000059B200000934346FFF77AFE43469B8820
:101AD000039AE418013203921278A4B2002AD7D1F3
:101AE00007B0F0BCBB46B246A946A046F0BDC04612
:101AF000701A00200123D02283401206002901D051
:101B0000536170479361FCE700B583B06B460122D7
:101B1000D91D0870024809F043FD03B000BDC0465E
:101B20000000044010B50A000100024809F038FD29
:101B300010BDC0460000044010B5642810D80A4B00
:101B400000041A6893009B18084A9B009A181268B0
:101B50005040074A000C944600046344186010BDCE
:101B6000044804F09FF8FAE700FC01200C0005404F
:101B70000C100540B0B7001010B500F0DDFE10BD30
:101B800070B504F041F80C2000F0B6F8D0248023A2
:101B90008025802624065B0163626D00082000F02A
:101BA000ABF8B6006562092000F0A6F8192066625D
:101BB00000F0A2F880239B0463626661A561636103
:101BC00009F08AFA1F211D2000F054F8002200219C
:101BD0001D2000F069F800211D2000F079F81A4B53
:101BE00004211A68C0239B015340E022D201134014
:101BF000164A1920136000F03DF80422144B1549D1
:101C00001A606423144A15481366154B1B681B0C95
:101C10001B040B60C8239B005365124B12491A68C2
:101C200001239343114A136009F0B8F901210A20F6
:101C300000F020F801210B2000F01CF80C4804F003
:101C400031F8002070BDC04600C0044000D0044000
:101C500000FC01205C10054000000540000004402D
:101C60005C0005405000054000E1F50550100540BE
:101C7000C4B70010094A83009A1810B514684022AE
:101C8000544080322240064CC000A44663441A608F
:101C9000044B9C466044416010BDC04604C00140F6
:101CA00004D0014000400140074B8000C3181B686E
:101CB000C90092000A435A400C231340034A944639
:101CC000604403607047C04604C0014004D0014036
:101CD0008000002905D0064B9C46402360440360E9
:101CE0007047044B9C46402360440360F8E7C046BD
:101CF00004E0014004F001400123D0228340120699
:101D000093629361094A83009A18116840225140F6
:101D100080320A400649C0008C4663441A60054B75
:101D20009C460523604443607047C04604C00140A0
:101D300004D00140004001408023DB051868000FFB
:101D40007047C0460FB400B5084883B003F0AAFF3F
:101D5000049B002B07D005A91800019103F0DEFDBC
:101D6000034803F09FFF012003F0F0FDDCB70010F3
:101D7000ECB7001010B50148FFF7E4FFF0B7001012
:101D800070B5EFF3108C72B60D4D2B68002BFCD0A4
:101D9000BFF35F8F0724CB08C618C05C01230C403B
:101DA000A3401C000440034207D118433070BFF326
:101DB0005F8F2C608CF3108870BD1000FFF7C2FF9E
:101DC0002C0100D0F8B54746CE46884680B5EFF3E3
:101DD000108C72B61C4D2C68002CFCD0BFF35F8FAA
:101DE0009A4222D807210126894602E00132934215
:101DF00018D34D4637001540AF40D4080119045D93
:101E00002742F3D110003C430C70BFF35F8F0022D8
:101E10000D4B1A608CF3108800280EDBC0BCB9464D
:101E2000B046F8BD01204042EFE7BFF35F8F0023CB
:101E30002B608CF31088012040424346002BEDD0EC
:101E40000898FFF77FFFC0462C0100D0044A1078A5
:101E5000431CDBB2172B00D9102313707047C04608
:101E60005810002010B5064B064C82B001000093BC
:101E700018221F232000FFF7A5FF02B010BDC046A7
:101E800000B80010042300200021044B044ABFF3D3
:101E90005F8F02C39342FAD17047C046000100D061
:101EA000800100D0054B064A1360064A1360536058
:101EB0009360D36013615361936170478080808029
:101EC00000E400E004E400E01F2318401E3B8340D0
:101ED000002905D0C021044A4900535013607047BF
:101EE000802201498B50FAE700E100E001228240A4
:101EF000034B1B6813405A1E9341D8B27047C0462B
:101F000000E100E001238340014A13607047C046AE
:101F100000E200E0064B10309B688000C358054A81
:101F200000209B1A2F229A424041C0B27047C046FF
:101F300000ED00E05C10002070B50D00EFF310869E
:101F400072B60F4A1368002BFCD0BFF35F8F0D4BA6
:101F500010309B6884001B590B4A934203D09D426A
:101F600001D001F00DF8074B9B681D51BFF35F8F47
:101F7000BFF35F8F0022024B1A6086F3108870BD9A
:101F8000240100D000ED00E0C1010010F0B557467B
:101F90004E46DE464546E0B585B006000091170086
:101FA000EFF3108B72B66A4A1368002BFCD0BFF3B4
:101FB0005F8F0025674B5D579A46002D00DAA9E038
:101FC0006B00654C01935B199B009846A146C14488
:101FD0004B4652469B7910361370604BB6009B6897
:101FE00099590B1B2F2B33D95D4B994200D0ACE094
:101FF000019B42469C465B4B6544AD0063535A4B84
:102000000232A218043B9B1A1B05584A5B0D651946
:1020100013436B80564B0121AB80FF23AB71009BB8
:10202000EF71AB604B460B4319004C4B9B689951C9
:10203000BFF35F8FBFF35F8F0022454B1A608BF3B6
:10204000108805B0F0BCBB46B246A946A046F0BD1C
:1020500001200A008243D3798C46BB4231D84546E1
:10206000130044491B1B5B415943090D3D4B63530E
:102070003D4B02356519043B5B1B1B053B4D5B0D5E
:102080002B43AA464D466B800425AC465546E0449A
:10209000131F44441B1B1B055B0D1D434B469971CD
:1020A00000999D8099604946DF71334B014313606D
:1020B000BBE75800C01880002018C179B9422FD959
:1020C00002000623D356002BF3DA02932B4B614612
:1020D0000393131D9A4604235B429C46E1445046F9
:1020E0004B461B1A1B055B0D9C46204B9571984671
:1020F0006346404603439380019B5A199200039B19
:10210000A418A380029B1C4AA371009B2260E77164
:10211000A3608AE700F034FF002553465D574FE780
:10212000908802934005131D9A46031561469C460C
:102130004046D444634604302018181AE0230005B2
:10214000400D1B0218430390C5E700F019FF4FE74D
:10215000240100D01A7D02205C10002000ED00E078
:10216000C101001000A1FFFF8C10002000E0FFFF64
:1021700001BDFFFFAAAA00000148804701BD000081
:1021800010B58308040003202040FF24054AC00046
:102190009446844081409B0063441A68A2430A43EA
:1021A0001A6010BD00E400E070B501240443EFF3B1
:1021B0000581EFF3108C72B6214A1368002BFCD016
:1021C000BFF35F8F1F4B05001F4AED1A6D416A4335
:1021D000120D1E4D8900AE6852B27658A6421CD030
:1021E0000621595691421CD012215956914222D0B3
:1021F0001E215956914220D02A215956032491423A
:1022000010D0134B19781A708171BFF35F8F0022C1
:102210000B4B1A608CF3108870BDAB680D4C5C5092
:10222000EFE700246100091989005B18FF2199710B
:1022300009499980E5E70124F4E70224F2E7C04662
:10224000240100D05C100020AAAA000000ED00E0EC
:102250001A7D0220C101001001BDFFFF10B5084B1F
:10226000084C82B001000093002205232000FFF7F4
:10227000A9FD002801DB1F23181A02B010BDC046BB
:102280001CB800101E7D0220024B9C466144890050
:102290000160704740000034F8B5124C124DAC425A
:1022A00012D20126002776422368002B0DD0FFF7BB
:1022B000CDFD01002000FFF7E7FF66602772BFF346
:1022C0005F8F0C34AC42EFD3F8BDFFF7BFFD0100C8
:1022D0002000FFF7D9FF6660BFF35F8F0834AC4280
:1022E000E2D3F1E7801600209016002010B504001C
:1022F000FFF7ACFD01002000FFF7C6FF01235B42A2
:102300006360BFF35F8F10BD10B504000120FFF7BD
:10231000A9FD034BC3189B002360BFF35F8F10BD63
:1023200040000034034B9C46614489000160BFF3C8
:102330005F8F704740000034F0B5DE4657464E468A
:102340004546E0B587B0EFF30583032201251A4027
:10235000954091008846A946B34B03925C58B34B15
:102360001D60B34B04934B46B24843630823E55EBC
:10237000002D37DAA3881BB2002B00DBADE0A37978
:10238000002B00D0EEE00823E05E002820DB4300B5
:1023900062691B18DB00D3189E68DD68731C00D1CE
:1023A00011E1A44801004144826A0B69B71A9B1AE3
:1023B0009F4215D30123026A039883401A420FD02B
:1023C0009C4800F0C5FB8D4202DCCCD18642CAD9C4
:1023D00040BF07B0F0BCBB46B246A946A046F0BD20
:1023E0000E61EDE762696B0092465B19DB009A446F
:1023F00053469E68DF6800F0ABFB8F42BADC00D129
:1024000003E1002F00DAE8E05246534652691B69A7
:102410009346049A934200D1D9E052460821605E67
:102420005288000459461043984700900191009942
:10243000019A0B001000134300D1CEE013000A00F4
:10244000B61A9F41002806DB7A4800F081FB009E07
:10245000019F36184F4153469E60DF6000229A5E0E
:10246000002A00DA86E7530099186069C90041180C
:1024700002938B68C9689B46B94200DD7AE702D1B6
:10248000B34200D976E708239C46A44405956546E7
:102490002281A446029B2C0006E053009918C90033
:1024A00041188D68C968AB469B18DB00C318B94258
:1024B00006DC00D1B3E01C000023E25E002AECDA67
:1024C000230064469C4653461A806346059D1D8042
:1024D000A3881BB2002B00DA51E72269EFF31081C9
:1024E00072B61368002BFCD0BFF35F8F0123A7885F
:1024F0005B42A3803FB22369BFF35F8F00221A6063
:1025000081F31088002F00DA39E723000833220016
:102510009A4666697B00DB19DB00F3189968504620
:102520008C460824115FDD68002910DB029306E069
:10253000AB4244D00023E15E2000002906DB4C00C2
:102540006418E4003419E368AB42F1DD029B0780B4
:1025500000201F5E1980002FDCDA1400A379002B05
:1025600000D110E70023A37126000823E15E08369E
:102570004B1C00D12CE70800A246656902E03E0032
:102580004B1C1AD04B005B18DB00EF180A008C467E
:10259000E95E7B881BB2002BF1DA01235B42DC177A
:1025A000BB60FC60824205D0534631801B893B8072
:1025B00053461A8160464B1CE4D15446E5E6A368B5
:1025C0006345B7D9C2E76B1C00D0EAE6F8E65B4684
:1025D00058461B69984700281BD153461B8822691F
:1025E0002381EFF3108372B611680029FCD0BFF38A
:1025F0005F8F514662880A8022696580BFF35F8FD2
:102600000021116083F31088B4E6864200D8F8E612
:10261000B0E65B461A685B680092019307E7B34532
:1026200000D848E74CE7C046D43700203C7005404E
:102630003923001000400540074810B50268EFF349
:10264000108172B61368002BFCD0BFF35F8F06F0C9
:1026500029F90020002110BDFCFB012070B52E4C93
:102660002569002D04D00A212C48FFF70DFE70BD0E
:102670002B4E0321300000F061FAE660FFF7E6FB25
:10268000284B03229C46D02322701B061B68012185
:102690006370254B6044A3600F23800020610220FB
:1026A000638063694942A1801980023119864731EC
:1026B0001D83585218315A5275325C39995218326A
:1026C000013199521832013199521832013199521F
:1026D000083518329D5202311832995218320131A0
:1026E00099521832013199521832013199521832E7
:1026F000013199521832013199520C4B0C49DC606E
:1027000001303562FFF718FC01210320FFF7DCFBE5
:10271000084B1D60A7E7C046A4100020FCFB012069
:102720000040054040000034FFFF1000D437002077
:10273000392300103860054000487047A41000207D
:10274000F8B51F0008AB1B7804001600002B08D159
:1027500000F006FA32003B00121A8B41002B00DA1F
:1027600052E02269EFF3108072B61368002BFCD0A0
:10277000BFF35F8F0223E15E63694A005218D20003
:102780009B182269002936DB1D886580BFF35F8FA7
:102790000025156080F31088069A9E60DF601A613C
:1027A000079A5A615A8801325204520C101C002AAE
:1027B0001FD082B25880080410432669EFF31087B7
:1027C00072B63268002AFCD0BFF35F8FA2881A80ED
:1027D000A1802369BFF35F8F00221A6087F31088FE
:1027E0000A4923788C4601329A40E36863441A60B0
:1027F000F8BD0120DDE7BFF35F8F0023136080F396
:10280000108801204042F3E70020F1E73C2000005F
:1028100070B501000469EFF3108C72B620680028CF
:10282000FCD0BFF35F8F02200D5E4C696800401939
:10283000C00024180869002D36DB26884E80BFF3BF
:102840005F8F002606608CF31088E360638804982D
:10285000013320615B0405985B0CA26060611A1C67
:10286000002B1FD093B22804628018430A69EFF34B
:10287000108C72B61368002BFCD0BFF35F8F8B886F
:1028800023808D800B69BFF35F8F00221A608CF369
:1028900010880B7801329A40CB6808498C46634413
:1028A0001A6070BD0122DDE7BFF35F8F0023036074
:1028B0008CF3108801204042F3E7C0463C20000022
:1028C00010B543890A1493421ADD53009B184269DC
:1028D000DB00D3180469EFF3108C72B62268002A6B
:1028E000FCD0BFF35F8F5A88090494B2090C8A4266
:1028F00008D00369BFF35F8F00221A608CF3108841
:10290000002010BD8022120214435C800123026962
:102910008371BFF35F8F002111608CF3108804492D
:1029200002788C469340C268012062441360E8E755
:102930003C20000040787047F0B5CE46474680B551
:1029400083B0040000F00CF9FA2206000F0020000A
:1029500000230021920001F089FA801979410400D6
:102960000D1E02DA01242D4D644296267642F71799
:1029700036196F41AF4215D812D000F0F1F832008D
:102980003B00121A8B41002B18DC002B43D0200097
:10299000290000F0EFF803B0C0BCB946B046F0BD66
:1029A000A642EAD90022002316001F0000F0D8F842
:1029B00032003B00121A8B41002BE6DD00F0D0F80C
:1029C00032003B00121A8B41002B0ADB00230193DB
:1029D000134B3200009313483B00FFF719FF0130FF
:1029E000D5D0114BB1469846104E736A9F4204D819
:1029F000B26A4A45CBD29F42C9D143461A68EFF327
:102A0000108172B61368002BFCD0BFF35F8F404675
:102A100005F014FFE9E7002AB9D0CFE7FFFFFF7FF9
:102A200039260010A4100020FCFB012000400540C6
:102A3000F0B557464E46DE464546E0B506000F0067
:102A400085B0EFF3058399468B46002B12D03849A9
:102A500000204B6ABB4206D38A6ADB1B591E8B419E
:102A6000B2424041184305B0F0BCBB46B246A9464D
:102A7000A046F0BD2F4B9A46DB68984653461B781C
:102A80004046039300F064F84246039B040004337D
:102A90009B009B580D001B1A39003000001BA941F8
:102AA000894510DC0DD020BF214A0020536A5B45C8
:102AB000D9D3926ADB1B591E8B41B2424041184365
:102AC000D1E78342EFD900F04BF832003B00121AF5
:102AD0008B41002B1ADB00230193174B320000932C
:102AE00050463B00FFF794FE011E0FDD104B5A6A63
:102AF0005A451BD39B6AB34216D35046FFF7E0FEFC
:102B00000B4A0020536A5B45ADD3D2E7084A002048
:102B1000536A5B45A7D30020926ADB1BB242404157
:102B20005A1E934118439EE75A45E6D120BFE4E779
:102B300000400540A41000203926001010B5024ABC
:102B40000248FFF71DF910BD38B800100823002017
:102B50000300416A0A00986A596A8A42FAD17047AA
:102B6000034B596A0A00986A596A9142FAD1704730
:102B700000400540064A536A9942FCD807D1044BED
:102B800002E05A6A914202D19A6A9042F9D870479B
:102B900000400540F8B5DE464E4657464546E0B58E
:102BA0008B4605000A991800160000F03BFB0A9BB3
:102BB0006C001F02324B64199C46A4006444636895
:102BC00081469F4200D967602B1FDBB29846012BDC
:102BD00030D9C02380229B01E31812011A60294BCF
:102BE000AD0059599A4600291BD17301E02622688D
:102BF00053401E40802342465B01E3181E60012AB9
:102C000030D9802380229B01E31812011A605346B9
:102C10004A4667605A51F0BCBB46B246A946A04638
:102C2000F8BD586900F0FEFA013043001B18033B61
:102C3000FDD2DAE75B46012BCBD1C02303229B01F7
:102C4000E3181A60023AA3681A42FCD07301E02626
:102C50002268AD0053401E4080230A4A5B01924621
:102C6000E3181E605A462168514003220A401A6048
:102C700001225B469A40A3681A42FCD0C1E7C046D5
:102C8000008000400C230020F0B546464F46D64653
:102C9000C0B51F00344B44009C462418A400644473
:102CA000636888461600FF2B02D880235B006360B0
:102CB000031FDBB29A46012B30D9C02380229B012F
:102CC000E31812011A60294B8500595999460029C9
:102CD0001BD17301E026226853401E4080235246D8
:102CE0005B01E3181E60012A30D9802380229B01FA
:102CF000E31812011A6080235B0063604B465F514A
:102D0000E0BCBA46B146A846F0BD586900F08AFA60
:102D1000013043001B18033BFDD2DAE74346012B89
:102D2000CBD1C02303229B01E3181A60023AA368A7
:102D30001A42FCD07301E0262268850053401E40F1
:102D400080230A4A5B019146E3181E6042462168CF
:102D5000514003220A401A60012342469340A26870
:102D60001342FCD0C1E7C046008000400C23002085
:102D7000014B8000C05870470C230020F8B50400B8
:102D800021481E0017000D0000F04CFA0100380029
:102D900000F048FA069B36041B031E432368002BF1
:102DA00020DB1A4B1A49E3185A1E934180229201E4
:102DB00094465B421B0B174A1B0363441360164A7D
:102DC00013601F000A689743FBD1144B2560E2187B
:102DD0002123A06013602368002BFCDA0823E6603F
:102DE0001360F8BD3F2322681340AB42D9D1A368DA
:102DF0001B051B0D8342D4D1EE22E368D20213409F
:102E0000B342CED1EDE7C046001BB7000040FDBF86
:102E100008C0004000E0004000F000400430000026
:102E200010B580241C4BE4051C6000281AD0012337
:102E30001A4C18431A4BDC611A4C44401C6259620C
:102E400098628021144BC90519601748174908601A
:102E5000E021C9041960002A07D18022144B120610
:102E60001A6010BD0E4BD861EBE753019B1A9B0013
:102E70009A18802312015B049A4209D213000D496B
:102E80000B60074B5A608022094BD2051A60E8E7B5
:102E9000094B1A00F3E7C04600B00540D3C007B0A5
:102EA000008005402D3FF84FFCFF01000820014045
:102EB00000A00540AC370020FFFFFF008023024A3E
:102EC0009B000B43D362704700800540002310B580
:102ED0000100988A1B8B984710BDC046162310B579
:102EE0000100188802331B88984710BDF8B5474683
:102EF000CE4680B50F1E18D0142399460433040023
:102F00000025012698464B461888434621681B88B1
:102F1000984701C4431E984101350640AF42F2D1A3
:102F20003000C0BCB946B046F8BD0126F8E7C0463F
:102F3000002370B504000D00988A05491B8B984743
:102F400003000020002C01DB0130A040290098473D
:102F500055420000AA23064A1B0113608D235B0023
:102F6000D3600449044B19605368002BFCDA7047A6
:102F70000040024000B0FA00006002407047C046C6
:102F800010B50148FEF7DEFE5CB8001070B5074DC5
:102F9000074EB54209D20024013E761BB60808CD83
:102FA000984723000134B342F9D170BDF0B5001049
:102FB0002CB60010054B064A06491A60064A074B14
:102FC0001A6010000B689843FBD1704700E0004086
:102FD000BFCDFBFE08C00040FE7F3C0000F000407B
:102FE000044BDB6C002B03D18022034BD2021A600E
:102FF0007047C046000011504C201150044A054B48
:103000001A60054A1368DB018033FBD17047C04664
:10301000FFFFFF0100F0004008C000404022034BCA
:103020009A675A671A67DA667047C04600F001402F
:1030300010B5FEF729FF10BDF8B52749274C284DDC
:10304000641AA6103200302E00D9302228009200D7
:1030500000F0E4FFBC2C3BD830202F232C19640750
:10306000204A801BE40F9B1B052B16D93700002C30
:1030700002D0B300771CEA50001B33199B004108B3
:10308000EB18C900C9181A605A6008339942FAD17E
:10309000012303421CD09843C619B300EA50731CA5
:1030A0002F2E15D09B00EA50B31C2E2E10D09B0063
:1030B000EA50F31C2D2E0BD09B00EA50331D2C2E12
:1030C00006D09B00EA50731D2B2E01D09B00EA50C6
:1030D000054B9D60F8BDC04600010010C001001006
:1030E00000000020C101001000ED00E0002310B539
:1030F000294C82B0A367FFF72DFF0122274B1A60EE
:10310000636C012BFCD10322254B1A60224A936B7E
:10311000012BFCD1013300930121224A22480433C0
:10312000FFF72CFE052301210093204A2048FFF7DA
:1031300025FE0022022104201E4BFFF7A5FD0022E0
:10314000012105201C4BFFF79FFD002200210720D5
:103150001A4BFFF799FD002200210820174BFFF7BB
:1031600093FD8023DB000093002200210920134BF4
:10317000FFF710FD0022104B00210620FFF784FD11
:103180000420FFF7F5FD0E4900F04CF80100002087
:10319000FFF794FE02B010BD008000403CB000403C
:1031A00030B00040002F685900800240008C8647F4
:1031B00000C00240001BB70040597307006CDC02DE
:1031C00040420F0001480421014B1847C010002065
:1031D000ED2E0010124A936F9B0815D29066D166AF
:1031E000002905D0FFE7FFE7FFE7516F106F704739
:1031F00004B580210906C2175140002800D0C843F9
:1032000008F0B6F9002104BDF0B5146E556E576F85
:10321000166FFFF7E3FF1466556657671667F0BD34
:10322000000000D0114A936F9B0813D210665166BC
:10323000002905D0FFE7FFE7FFE7516F106F7047E8
:1032400004B5002801D00020C04308F091F9002106
:1032500004BDC046F0B5146E556E576F166FFFF77C
:10326000E5FF1466556657671667F0BD000000D08D
:1032700094464A4A926F9208624601D228E0C046BC
:10328000F0B5464E346E756E776F366F00F020F8ED
:103290009446424A14665566576716676246F0BD03
:1032A00094463E4A926F9208624601D254E0C0466C
:1032B000F0B53A4E346E756E776F366F00F04CF89D
:1032C0009446364A14665566576716676246F0BDDF
:1032D000002B24DB11D000293EDA00B5C94340425F
:1032E00000D1013100F038F8C943404200D101312A
:1032F000DB43524200D1013300BD002AEBD100284C
:1033000001D1002905D00020C90FC90701D1C04350
:10331000410800B508F01CF90022002300BD00B5EB
:1033200000290ADBDB43524200D1013300F014F8DC
:10333000C943404200D1013100BDC943404200D1E0
:103340000131DB43524200D1013300F005F8DB4389
:10335000524200D1013300BD002923D1002B18D1E6
:10336000002A0CD0BC460D4F38667A660021002337
:10337000FFE7FFE7FFE77A6F386F6746704700287F
:1033800001D00748010000B508F0E2F80022002350
:1033900000BD02000B00002000217047000000D09B
:1033A000FFFFFFFF002B00D0BFE0130C28D1002A45
:1033B000E7D080B4114F39667A66FFE7FFE730B493
:1033C000040C7B6F396F1B0423433B667A66FFE76F
:1033D000FFE7FFE7C04684B27B6F3D6F1B042343CA
:1033E0003B667A66FFE7FFE7C04600232C042D0CFE
:1033F0007A6F386F00196941B0BC7047000000D087
:10340000F0B594460025140E01D112020835140FB0
:1034100001D112010435940F01D192000235D40F6D
:1034200001D152000135D40B0134254F7C66254C67
:103430003C660E0C93B2FFE7FFE7FFE73C6F664385
:10344000360C7703BE467343DF0B5B04C01AB941E9
:10345000130C7343DB18C91ACE086643360CB64406
:1034600093B273431F0F1B01C01AB941130C73436E
:103470001F0B1B05C01AB941860D8F023E436643E0
:10348000360C092D24DB520A7243801A7703460A50
:103490006643360C16235B1BDE40DF40BF196446D3
:1034A0006643821B7046043506330100D940A840AC
:1034B000C01900D30131A24206D20023F0BD0000A2
:1034C000000000D0FFFFFFFF121B0130F3D3F1E734
:1034D00009277F1BFE406446A2B27243801A00D2C5
:1034E0000139220C7243130C1204821A99410B0009
:1034F0007046043513370100F940A840801900D305
:103500000131002B02D1A2420AD2F0BD013000D31A
:103510000131121BFAD2013BF8D1A24200D2F0BD18
:10352000013000D30131121BF7E7F0B51C0C00D0BD
:1035300080E00CB400251C0A04D11B02160E334394
:10354000120208351C0B04D11B01160F3343120164
:1035500004359C0B04D19B00960F33439200023537
:10356000DC0B02D192185B4101351C0097186441B5
:103570000134464F7C66464C3C660E0CFFE7FFE785
:10358000FFE7C0463C6F6643360C7703BE4697B2F2
:103590007743C01B00D20139C01B00D201399FB252
:1035A0007743C91BC91B170C77437E04FF0B801B95
:1035B000B941CE086643360C0C2D33DBB644120BF2
:1035C0001F053A431B0B97B27743C01B00D201394A
:1035D0009FB27743C91B170C77433E043F0C801BF7
:1035E000B941860D8F023E43664329277F1BFE406B
:1035F0000C3D7746AF40BF1930BCA2B2ABB27243AC
:103600007343801A9941220C7243130C1204801ADE
:10361000994102000B000137001BA941F9D2781E25
:103620000021F0BD0C277F1BFE4077467F0BAF408B
:10363000FF19E0E700245D1C07D0144F7D66396652
:10364000FFE7FFE7FFE7FFE73C6F95B29EB26543F8
:103650006643401BB141150C1E0C6543664336049E
:103660002F0C3E432D04401BB141994204D202006D
:103670000B0020000021F0BD01D19042F7D3801A49
:10368000994101349942F2D3F6E70000000000D0DE
:10369000FFFFFFFF48404140484018B41B4B5B68A8
:1036A000FC46019308BD04DF3F39001018B4174BE6
:1036B0001B68FC46019308BD00DF493900109446A1
:1036C000134A926F920809D2624618B40F4BDB6816
:1036D000FC46019308BD0CDF013C00100C4AF0B51C
:1036E000146E556E576F166F6246FFF7EEFF084A6D
:1036F0001466556657671667F0BD18B4034B9B6890
:10370000FC46019308BD08DFA53A001018180020F8
:10371000000000D0FFB550404240504059404B405F
:10372000594000E0FFB5154F4C00640D03D0BC427A
:1037300004D10C0314D80020090D09055C00640DA8
:1037400003D0BC4204D11C030AD800221B0D1B0568
:1037500001264B4009D44B4003D58B4200D1824215
:10376000FFBD9942FCD19042FFBD0B43DB180343E0
:103770001343F5D0C9434918FFBD0000FF070000FF
:1037800000B5FFF7CFFF804100BDC04600B5FFF791
:10379000C9FF01D9002000BD012000BD00B5FFF721
:1037A000B9FF01D9002000BD012000BD00B5FFF721
:1037B000B1FF804100BD012040054A00121804D825
:1037C0005A00121801D800207047012070470000ED
:1037D0000021002805D17047C1174840401AFAD08F
:1037E000C90713B5064B1B6898470CBC441CA24084
:1037F0001005120B0349091B09051943114310BD9C
:10380000F8FB01201F04000010B54C00620D80235E
:10381000D218DB00D21A5B057E2A10DD9E3A13DA3D
:10382000CC170903490819435242D14064000134BE
:103830001532202A05DAD0400843604310BD00202D
:1038400010BD0846604310BDC80FC018013810BD38
:1038500018B4044B5B6AFC46019308BD24DFB13DFC
:103860000010000018180020132370B51D78012DDA
:1038700019D014DD1F48FFF731FB06001E48FFF783
:103880002DFB1E4C80223100200000F0C7FB022DD2
:103890002DD01B48FFF71AFB1A4B186070BD1A4B4E
:1038A000164CA364F5E7184B144C23606360A360C7
:1038B000E36023616361A361E36123626362A362E6
:1038C000E36223636363A363E36323646364A364C6
:1038D000E36423656365A365E36523666366A366A6
:1038E000E36623676367A367E367A364D1E7064BD7
:1038F000A364CEE75344000053460000181800208C
:103900004C330000F8FB01200D39001007B560466C
:1039100001880A0A0230DF2AFAD1C9B2820804D328
:10392000028840880004104300E00068014A5050BB
:10393000039007BD181800200FB403BC0CBCF0B5F1
:103940000124E407634000E0F0B50C0DCF0F661EC4
:103950003605891B640503D3C943404200D30131B6
:10396000640D03D0661CF60A07D0E41B00207F001C
:10397000791C89078912803C24031D0DDF0F6E1E00
:1039800036059B1B6D0503D3DB43524200D3013345
:103990006D0D03D06E1CF60A07D0ED1B00227F00D0
:1039A0007B1C9B079B12803D2D032F1B661B58D44D
:1039B000A446202E46DA20371400BC401D00BD402E
:1039C000F24033412A4380185941CB0F05D0C943F7
:1039D000C043002264425041514162464D0D28D1FE
:1039E0000D0D07D100281FD0241940414941013A4B
:1039F0000D0DF9D0640006D3013000D30131002C45
:103A000001D140084000013A0BD4941CE40A04D1CF
:103A100012051144DB071944F0BDD907204B1943A7
:103A200000E0D9070020F0BD0029DDD1002CDBD15A
:103A3000F0BD0132C6074008CD0728434908002ED3
:103A4000E1D0D9E73C2E29DA203E40371400BC40B3
:103A500000D00124F24014431A00BB401C43D3178A
:103A6000ACE7AC46202F08DA20360400B4400D0045
:103A7000B540F84039412843A5E73C2F0CDA203FF8
:103A800040360400B44000D00124F840044308004C
:103A9000B1400C43C117EAE710001900002494E775
:103AA0000000F07FF0B50C0D661E3605891BE60A96
:103AB0006405640D02D0651CED0A04D000200121CC
:103AC0000905803C2403A4461C0D671E3F05DB1B33
:103AD000E70A6405640D02D0651CED0A04D00022DB
:103AE00001231B05803C24037740644497B484B2CF
:103AF00096B27443070C7E43150C6F4380B2684343
:103B0000361802D3012000043F183004350C001988
:103B10007D41844688B29AB250430C0C62431F0C1C
:103B20007C438EB27E43921902D301263604A41937
:103B30001604170C3618674101BC81B29AB2514382
:103B4000040C62431B0C5C4380B25843121802D32E
:103B50000120000424181004130C401863412D1890
:103B60005E410020474106BC88B293B258430C0C1A
:103B70006343120C544389B251435B1802D30121B1
:103B80000904641819041A0C091862416D18564189
:103B90000020474118BCF902720D1143F0026A0D72
:103BA0001043ED020A0D03D16D1940414941013B1B
:103BB000124E9B1B7600B3420ED26D0007D301302C
:103BC000002671416646354301D1400840001B057F
:103BD000C918E4072144F0BD0BDA013306D10130E6
:103BE00004D101314F0D01D04908F2E7E10700206F
:103BF000F0BD013631050020EBE70000FF030000B7
:103C0000F0B51C0D671E3F05DB1BE70A6405640D5C
:103C100002D0661CF60A04D0002201231B05803C5A
:103C20002403D0252D060026F6432E661E096E6657
:103C3000CE0FF619B44649004F0D02D07E1CF60A8D
:103C400003D000200021403F3F033E1BB600B44498
:103C5000013F7F05C91B49082E6F013676089C027B
:103C6000950D25437543ED137543AD1301356D1067
:103C7000F603761B0CB4CC02450D2C43A2B2B3B2B2
:103C80005A43270C7B43350C6F43A4B26C431B197A
:103C900002D3012424043F191C041D0CA4187D41E7
:103CA00024196D41009A91B2ACB26143170C7C4368
:103CB0002B0C5F4392B25A43A41802D30122120480
:103CC000BF182204230C52187B41019C6C431B1922
:103CD000520ED9010A434401A01A81B2B2B2514333
:103CE00003145A43360C734387B27743D617D2195D
:103CF00000277E4136049B191704160C7F185E417D
:103D00007316ED18F301002680337541A90F06D113
:103D10006400690AE8055B0A184309D22FE004220F
:103D2000944480337541A90AA8059B0A184326D3F9
:103D3000404149412404009A019B0D005543641BF6
:103D40004343E41A95B286B27543170C7E43030CC5
:103D50005F4392B25A43B61802D301221204BF182D
:103D60003204330C52197B4152429C41002C02D444
:103D70000022013051414008CA071043490802B0EF
:103D80006246D7079210084BD218084B9A4203D2CA
:103D900012058918C919F0BD0020002A01DC39007C
:103DA000F0BD01331905F5E7FD030000FE07000033
:103DB000002200B5203200F004F8080000BD000029
:103DC00000220B150AD410B5944600F031F81414F3
:103DD000013400DA0021CB17144C204700200021C9
:103DE00070476244343A0CD40C2A07DA040091403C
:103DF000904052422032D440214310BDD843D94391
:103E000010BD203207D40C4694405242203211415A
:103E1000D040204310BD0800C917203203D45242BD
:103E20002032104110BD1800190010BDE33D0010F4
:103E30000A0DCC0F531E1B05C91A520503D3C943E3
:103E4000404200D30131520D03D0531CDB0A07D08E
:103E5000121B00206400611C89078912803A12033A
:103E6000014BD21A70470000FF0300005143434347
:103E7000C9188C46110C83B24B4310B4040C614337
:103E800092B280B2504362431C041B0C001910BC58
:103E900059411304120CC01851416144704700008D
:103EA0004840414048400E4B5B6818470C4B1B682C
:103EB00018470C4A936F9B0802D2094BDB681847DE
:103EC000F0B5146E556E576F166FFFF7F6FF054A83
:103ED0001466556657671667F0BD014B9B68184717
:103EE00018190020000000D0C10FC90700D54042BA
:103EF000002817D0F44603B40B4B1B68984706BC48
:103F000081409E384042803107D20B0607D04900DD
:103F1000490AC0051043084360470130F8E7490AE1
:103F20008902F5E770470000F8FB0120034BDB6FC7
:103F3000FC4618477CDFD13F001000001819002014
:103F4000132310B512481C78FEF7C8FF0100012C9E
:103F50000AD003DD80220F4800F060F80E48FEF71B
:103F6000B5FF0E4B186010BD0A4C5422200000F023
:103F700055F80B4B6365A365E36523666366A3662B
:103F8000E36623676367A367E3672362E361E5E7AB
:103F900053460000181900204C330000F8FB0120A4
:103FA000A53F001007B5604601880A0A0230DF2AE3
:103FB000FAD1C9B2820804D30288408800041043B1
:103FC00000E00068014A5050039007BD1819002016
:103FD000C30FDB0741000A0E07D0FF2A08D00909EA
:103FE000054A891819434007704719000020704797
:103FF0000249C918FAE70000000000380000F07F0D
:1040000001480421014B1847D0100020ED2E00106C
:10401000014B1B6818470000D0100020014B5B6863
:1040200018470000D01000209A4200D288547047F0
:104030007047C046F8B55746DE464E464546E0B5A1
:1040400099460A9B07009A460D9B884693460B9C0F
:104050009B073BD10C9B9C423DD21E1B0B94150031
:104060000C005E442A004B46013521002020B84751
:10407000B542F7D1A0460B9C002C20D045463619FE
:104080005346321B013C185D29004B46B847002CB3
:10409000F6D12B00350098460D9B9B070FD55B464C
:1040A000EC1A0C9BA3420AD9464698462A004B4676
:1040B000310020200134B84701354445F6D32800AB
:1040C000F0BCBB46B246A946A046F8BD1600150096
:1040D000002CD3D1E0E716001500002CCED1EEE77E
:1040E000F0B54546DE4657464E46E0B585B09C469F
:1040F00010AB1B78149F934698460F9C129E139DFD
:10410000BB074CD4002D42D1B44248D201233B40DE
:1041100099460E9B013B9A46302304E052460134F7
:104120001355A64201D9202CF8D14B46002B00D1C3
:1041300083E00E9B013B99463023A54205D82EE033
:104140004A4601341355AC4229D0202CF8D1FB0645
:104150000CD57B0554D4A64263D0A54261D0119BF7
:10416000102B50D0022B57D0202C32D1202301937A
:104170000E9B5A460093039763460295FFF75AFF3A
:1041800005B0F0BCBB46B246A946A046F0BD01232F
:104190003B40994601233B422AD1B442B9D3FB06A6
:1041A0001CD57B05DBD4002CD5D1119B102B5BD00B
:1041B000119B022B6BD0302301240E9A13704346BF
:1041C000002B10D17B073ED52B260E9A631C16556B
:1041D000CDE72300013430260E9AD654202CC5D0CA
:1041E0004346002BEED02D260E9A631C1655BEE7D3
:1041F0004346002B2FD0013DB44200D289E798E717
:10420000119B102BB2D1BB0637D5202CAED0582332
:104210000E9A13550134A7E7202CA7D023000134B0
:1042200007E0631E012CC0D0119A102A31D0022A57
:10423000D1D162260E9AD65496E7FB06CED57B05E1
:1042400000D488E78BE723003E0790D520260E9AFE
:10425000013316558BE70C233B405A1E9341ED1A50
:10426000B44200D255E764E7BB060ED478230E9A19
:104270000224137030235370A1E7202C00D175E77E
:1042800078230E9A135501346EE75823EFE7603315
:10429000EDE70E9AA61E91464E44BA0602D5582264
:1042A000327098E77822327095E7C04610B5002842
:1042B00000D110BD01F0ACFCFBE7C0460B0010B50F
:1042C000002802D049681B68984710BDF0B55746D2
:1042D000DE464E464546E0B595B083460F00924611
:1042E00098461E9A1F9B10001900209EFFF763FA44
:1042F000002800D0EAE11E981F990122C54B5242C6
:10430000FFF73EFA002800D014E11E981F99012201
:10431000C14B5242FFF74AFA002800D0E9E01E984C
:104320001F990022BD4BFFF741FA002800D0C8E0DA
:104330001E981F990022BA4BFFF722FA002800D0DE
:10434000BFE01E981F9900220023FFF719FA0028EA
:1043500000D0E4E000230B93229B5B0500D40626EB
:104360000024302307E0172106AA01345218135500
:10437000013E202C01D0092EF5D81E981F99FFF779
:1043800043FAA84BF2009B181A685B680500089274
:104390000993FFF721FA02000B001E981F99FFF7FF
:1043A0007CF9089A099BFFF7A8F906900791FFF797
:1043B0004FFA8146FFF70CFA02000B0006980799A6
:1043C000FFF76BF90022984B06900791FFF7EEF983
:1043D000002800D10DE101239C46E1444846FFF747
:1043E000F7F902000B0008980999FFF7CFF90028A8
:1043F00002D0002399460135002E00D1D9E0069560
:104400004D46B94614E006AA944617230A21634490
:10441000280001341F19FEF705FF303139702800DC
:104420000A21013EFEF7FEFE092D00D817E1050026
:10443000202CE8D14F46069D20240CAE06AA172357
:104440009446634499465B46B34606930FE04B4659
:1044500028000A210134E618FEF7BCFE303128009E
:1044600031700A21FEF7B6FE051E00D1E4E0202CD3
:10447000EDD1069B5E469B460323229A1340012BF7
:1044800018D1219B002B15D00B9B002B00D1FDE0F8
:10449000219B013B2193202B0CD93023219A07E04B
:1044A000172006A9013409180B55944200D3CCE01B
:1044B000202CF5D1229B01940393219B009602931B
:1044C00022E0229B52460493219B390003935846D5
:1044D0001E9B1F9C029600930194434600F04AF9EC
:1044E0000400200015B0F0BCBB46B246A946A04669
:1044F000F0BD229B5B070FD403224C4B2299019203
:10450000039121990093029143465246390058463F
:10451000FFF790FD0400E4E70422454BEEE71E9A06
:104520001F9B00200021FFF7B8F801231E901F9168
:104530000B9311E7229B54469B0711D1219B042B1F
:104540000ED9219B55469C465E46043C64442A0095
:104550004346013539002020B047A542F7D1B34684
:10456000344D26002B1F99465B46A3461C003200A3
:10457000E87843463900013DA04701364D45F6D164
:1045800023005C469B46229B04349B07A9D55346D7
:10459000219AE31A9A42A4D95E46150022004346A6
:1045A00039002020B04753460134E31A9D42F5D824
:1045B00097E72800FFF710F902000B001E981F99DB
:1045C000FFF76BF80022184B06900791FFF7D8F819
:1045D0000CAE002800D031E7069807990022124B54
:1045E000FFF7E4F8002800D028E7012301359D43B8
:1045F00024E70022069807990B4BFFF7C1F8002823
:1046000000D0F9E64B46002B5CD101239C46E144E7
:10461000F2E6C046FFFFEFFFFFFFEF7F65CDCD4124
:1046200065CDCDC160C700100000E03FB4B80010F8
:10463000ACB80010BCB80010069B5E469B46032336
:10464000229A1340012B00D181E0202C00D131E7C8
:104650000B9B002B27D02D23335501342AE74F46DF
:10466000069D202C00D1E7E63022331907E0172001
:1046700006A9013409180A55202C00D1DCE6A34212
:10468000F5D12E220CAE0134F254D7E60C23229A37
:10469000134257D0219B013B2193A34200D9FCE652
:1046A000202C00D106E7229B5B0703D52B23335533
:1046B0000134FFE6229B1B0700D4FBE62023335581
:1046C0000134F7E6DB0700D496E69EE7229B5546C9
:1046D0009B0711D1219B032B0ED9219B54469C464D
:1046E0005E46033D654422004346013439002020E4
:1046F000B047AC42F7D1B346B9465F461C4EEC1CFE
:104700002A00B078434649460135B847013EAC42DD
:10471000F6D1229BBB464F469B0700D4E1E65346A9
:10472000219AE31A9A4200D8DBE65E461500220081
:10473000434639002020B04753460134E31AAB42C8
:10474000F5D3CEE6219BA34200D9A6E6B2E6219B93
:10475000002B00D179E70B9B002B97D0219B013BCD
:1047600021939C4200D298E6202C00D073E7A1E66A
:10477000B8B80010F0B5DE4657464E464546E0B59F
:1047800099B081468B4692469846229A239B100008
:104790001900FFF710F8002800D0CAE022982399EA
:1047A0000122824B5242FFF701F8002800D0C0E0FE
:1047B0002298239901227E4B5242FEF7E1FF002806
:1047C00000D0B6E02298239900220023FEF7D8FFFC
:1047D000002800D0C9E1229B239C089309940898E3
:1047E00009998023269ADB001A400D928022269C8C
:1047F0001201144022000B94269C07000E001C425C
:1048000000D0ADE00B00034300D0D5E0002A00D07B
:104810000AE2220006332493022313400C9302235E
:10482000134200D002E2259B042B00D20FE2043B8E
:104830000B93002304250A93002222982399002336
:10484000FEF79EFF002800D003E25A4B269A134041
:1048500004930B9B0393249B0293089B099C009356
:1048600001945946434652464846FFF72FFD020041
:104870002020269B1F27034059424B415B42184092
:10488000531C0893594643464530C8470A9AD317E4
:10489000D4185C40D30F0A936B1E0B9308AB9C4655
:1048A0000025674401E0202D0FD020000A21FEF7EB
:1048B000B9FC01357E193031317020000A21FEF734
:1048C000B1FC26000400092EEDD8052306930B9BAE
:1048D00059460593002304930A3303930A9B4846E1
:1048E000029310AB0093089A43460195FFF7F8FB3B
:1048F0000C9B002B2DD05346C41A259BA34228D9CC
:104900004D465F4681461E00534639001A19202045
:1049100043460134A847A642F6D85346484625994F
:10492000C21A01320023914200D386E101301818E7
:104930000FE0269B0493259B0393249B0293229BC9
:10494000239C009301944346524659464846FFF73C
:10495000BDFC19B0F0BCBB46B246A946A046F0BDAE
:1049600001432BD10B9B2200002B00D154E70023E5
:104970000A93249B0A9A0024934200DD85E1229841
:10498000239900220023FEF7FBFE002800D035E12A
:10499000269B084A02941A408023DB0013430493A9
:1049A000259B0393089B099CCBE7C046FFFFEF7F45
:1049B000FFFFEFFFFFF7FFFF06232493B44B7000C8
:1049C0009C46400D6044FEF707FFB24AB24BFEF72B
:1049D00094FEB24AB24BFEF769FE3603B14B360B7A
:1049E000334304000D00380019000022AE4BFEF7DF
:1049F00054FEAE4AAE4BFEF780FE02000B002000D4
:104A00002900FEF753FEFEF7FFFE0A90FEF7E4FED4
:104A1000A84AA94B04000D00FEF76FFE0022A74B29
:104A2000FEF744FEFEF7F0FEA54A0600A54B200067
:104A30002900FEF762FE040030000D000C96FEF720
:104A4000CBFEA14AA14BFEF758FE02000B0020004E
:104A50002900FEF722FE02000B0006000F00FEF701
:104A60004CFE320004000D003B0030003900FEF720
:104A70001DFE00220E900F91954B20002900FEF79D
:104A80001EFE0022934BFEF711FE02000B002000D9
:104A90002900FEF714FE00228F4BFEF707FE0200EE
:104AA0000B0020002900FEF70AFE0D008021040003
:104AB00032003B000020C905FEF7EFFD02000B00AD
:104AC00020002900FEF7F2FD02000B000E980F995E
:104AD000FEF7F5FD0022734BFEF7E8FD7F4B0C9CC3
:104AE0009C46644400222305FEF707FE06000F00E3
:104AF00002000B0008980999FEF742FE00280AD030
:104B00000A9B3000013B39000A930022714BFEF7EB
:104B1000D6FD06000F000A9A330063323900C62A18
:104B200012D802222698042510400B9A0C90002AD5
:104B300025D1259B042B05D9002800D0A1E0259B79
:104B4000043B0B93042541E00222269810400B9A67
:104B50000C90002A12D1259B052B76D9002872D102
:104B6000259B0525053B0B9334E0802212069446D5
:104B7000229B0893239B6344099330E605250B434E
:104B800000D1F6E608980999554A564BFEF706FEFD
:104B9000002808D0089809990022534BFEF7F0FD31
:104BA000002800D0E5E6249B002B1CD00D9B002B99
:104BB00019D0249B013B2493259BAB4204D90C9B29
:104BC000002B5AD002230C9300230B930A9B002B3B
:104BD00000D131E60898099932003B00FEF76FFDDD
:104BE0000890099128E6259BAB42EDD90C9B002B40
:104BF00043D000230B9302330C93E7E78020269BDE
:104C00003A4A00061A40802384460294089C099D73
:104C10002900DB0013430493259B61442200039386
:104C20000B00009201938EE60524A8E600230B9367
:104C30000A93023304250C93FEE553468C46013B50
:104C400063441B1A72E602230C930525C2E7042372
:104C5000EDE58020089E099F000639008446269ACB
:104C6000224B6144134004930B9B32000393249B1B
:104C700002930B0000920193F3E5259B5B1B0B93C2
:104C8000A4E7022304250C93A0E79C1A013C76E6D6
:104C900001FCFFFFFB799F501344D33FB3C8608BE7
:104CA000288AC63F0000F03F0000F83F61436F6371
:104CB000A787D23F71A379094F930A400000E03FD4
:104CC0001655B5BBB16B0240EF39FAFE422EE63FF6
:104CD00000002C400000244000001840FF030000AA
:104CE0002D431CEBE2361A3F80842E41FFF7FFFF75
:104CF000F0B5DE4657464E464546E0B5A5B01E0027
:104D00002E9B92460C93CD4ACD4B80468B461A6023
:104D1000002900D1EAE1002330789946002800D12B
:104D2000ECE1C84B4C460B93C74B454657460E9398
:104D30000AE0631C984622003B005946A8474446B7
:104D40003078002800D187E001362528F1D10823EA
:104D50009A46043B9946023B9846013B00229C46FA
:104D60000D943078711C0300203BDBB2102B03D86C
:104D70000B9C9B00E3589F460300303B89460D9CEB
:104D8000092B3AD9002398462A2800D1C1E00023F4
:104D90009A462E284BD00300683BDBB2122B1ED85C
:104DA0000E999B00CB589F4663460E001A43D8E7E6
:104DB00043460E001A43D4E74B460E001A43D0E791
:104DC00010230E001A43CCE753460E001A43C8E7DF
:104DD00080235B001A43FF3B9C467078E1444E46BB
:104DE00067284FD82428A4D90300253BDBB2422BE7
:104DF0009FD896499B00CB589F46002394461E009F
:104E000000E00131B3009B195B001E180878303EAA
:104E10000300303B092BF4D90123624689469C46A6
:104E20000023B0469A460E00E1442E28B3D130212B
:104E3000802049428C46C000024370784B4684442F
:104E40006146092900D86CE12A2800D17AE10123C2
:104E50009C464E46E1449EE7A146A846BA46CA454E
:104E600003D801235B425344994653464A46594668
:104E70000020C047200025B0F0BCBB46B246A94682
:104E8000A046F0BD0300693BDBB20D930F2B00D9A8
:104E90004FE7012199408C466D49894661464B4652
:104EA00019400F91634649460B4200D028E10D9B03
:104EB0000A2B3AD0072B00D03BE70C9B190008C9FE
:104EC0008846002B00D14BE121200243914614A9D2
:104ED0008C461F220F2162448C4651460D950C9141
:104EE000A24615000F9902E020290CD01300644659
:104EF0001C4020003730092C00D807380131685495
:104F00001A090F2BF0D80C9B54460D9D9A460F9111
:104F100033E10C9B02CB8846002947DB0C9301232D
:104F20009C4670784E46E14431E70C9B02CB1493CB
:104F30005346002B00D138E19C4608780B000C90BA
:104F40008C44002801D100F098FC894661469446C3
:104F500003E05A780133002A01D08B42F9D1494647
:104F600062465B1A0C900F93530500D520E1022393
:104F7000180010400D90134200D1CBE30D930B1B92
:104F8000B1469A465E460C9822003B003100A84785
:104F900053460134185D0028F6D1B3464E460D9BAA
:104FA000002B00D0C7E1149B0C93C9E60C9301239E
:104FB0009C46283849420243884670784E46E14470
:104FC000E5E670786C2800D17FE180235B001A430E
:104FD000FF3B9C46E14402E780239B001A430123E8
:104FE0009C467078E144FAE67078682800D173E155
:104FF00080231A437F3B9C46E144F0E6672800D1BA
:1050000003E1472800D15AE1452800D15AE1049232
:10501000072142460C9B0392073352468B431900EB
:1050200002920CC92800009201930C9122003B00CF
:105030005946FFF79FFB040082E6C046F14C001082
:10504000A8370020C4C5001008C6001054C60010C0
:1050500041900000462800D1DBE00492072142463F
:105060000C9B0392073352468B43190002920CC9E2
:105070002800009201930C9122003B005946FFF753
:1050800025F904005CE6631C984622003B00594663
:105090002520A847444653E60C9B04330D93631C1C
:1050A0009946920700D422E10C9B220018785946B9
:1050B0003B00A84743464444012B00D885E2330017
:1050C000B8462E005F4625004C46994622004346CE
:1050D000013439002020B047AC42F7D12C00BB4648
:1050E000350047464E460D9B0C9329E6DB4B307846
:1050F000984600239946002800D012E60024AEE628
:105100006F2800D188E000D80BE31023782800D165
:10511000CFE09A430A239C4600230F930A330D9352
:1051200080E05646B1008919490001330E181878FD
:10513000303E010030390929F4D9B2461E0001334E
:10514000994628E60C9B023602CB8A46C943504654
:10515000C917084082460C933078731C99461AE6AA
:105160001023100098431133184381468020130008
:10517000C0000340024200D1A9E64B460693082333
:1051800005935346049310230393002302930F9B2C
:10519000220001931CAB009359463B002800FEF708
:1051A0009FFF434604000C93CAE501235B42C3E61C
:1051B0000F9B534501D953460F930223180010400B
:1051C0000D90134200D1B7E10D93D1460B1B9A46C7
:1051D0003300A1442E0022004D460C98B9465F468C
:1051E0009B4608E04B463900541CB0475346185DB7
:1051F000002877D022009542F4D15B46BB464F464B
:10520000A94635004C461E00C9E680231B011A43FF
:10521000FDE620231A4320E708239C4600230F9332
:1052200008330D9380231100DB0019401A4200D18E
:1052300016E10D239A431000802302009B001A40C0
:105240001492184200D0C2E1802302005B001A4091
:1052500091460C9A04320F92184200D0B7E24306EE
:1052600000D59FE1030600D419E30C9B1B8809932A
:10527000002B00D0FCE110339843002900D1F7E166
:105280000023994643460593534604930D9B06908D
:1052900003930023D2E0582808D0622867D1022364
:1052A0009C4600230F9302330D93BBE720231A4340
:1052B000103B9C4600230F9310330D93B2E78023DD
:1052C0001B011A4320231A43A1E6C0239B001A4363
:1052D000F31C9946B07882E5C0231A43F31C994623
:1052E000B0787CE535005E46BB464F4657E6434600
:1052F000012B00D863E1631E43449A463300B9464C
:105300002E005F4655469B46A24622004B4601347E
:1053100039002020B047AC42F7D135005E46BB468D
:105320004F46A14654460C9B4A46187859463B00C6
:105330004444A847D7E6A1460F9B984500D832E6DB
:105340004444E41A3300B8462E005F4625004C461C
:10535000994622004346013439002020B047AC4230
:10536000F7D12C00BB46350047464E461BE680234E
:105370001000DB0018401A4200D10FE11121180083
:105380008A430D920D9A802311009B0019408C4690
:105390001A4269D1802311005B00194089460C999B
:1053A00004310F911A4200D0CAE113005B0600D508
:1053B000F0E013001B0600D459E20C9B00229B5E18
:1053C000D9175A184A4092B2D90F0C91002B00D12C
:1053D000F9E1100014AA944642461F231492524643
:1053E0006344A84616944D460400B946B2461F00D1
:1053F000159201E0202D0FD020000A21FDF712FFA9
:1054000001357E193031317020000A21FDF70AFF85
:1054100026000400092EEDD8149B4F46A9464546A8
:105420009846159B56469A46169C0D9B06934346F6
:105430000593534604930A2303930C9B02934B4614
:1054400001931CAB2200009359463B002800FEF755
:1054500047FE0F9B04000C9372E4C04631400010DD
:105460000C239A431000E7E607220C9B0733934373
:10547000013294469C4462460C920CCBD90F0F919A
:105480001100194300D191E0D917139112915140A5
:10549000109113995940119110981199129A139BD8
:1054A000801A99411090119114AA00239446424603
:1054B0009946149252461F336344A846B246169446
:1054C0004E46109C119DB94615921F0001E0202EFA
:1054D00010D0200029000A220023FDF7E1FE01364A
:1054E00030322B00BA550D0022000400002BEED103
:1054F000092AECD8149B1094119545469846159BA3
:105500004F46B14656469A46169C0D9B0693434617
:105510000593534604930A2303930F9B02934B4630
:1055200001931CAB2200009359463B002800FEF774
:10553000D7FD0400FFF704FC0F9B984500D8C1E19C
:105540008023DB000D9343460F9A1B199B1A994643
:1055500033002E004D46B9465F469B460C91220013
:105560004B46013439002020B047AC42F7D14346C6
:105570000C9901330F930B7835000C935E46BB46B4
:105580004F46002B00D10EE50D9B002B00D1F6E419
:10559000002319E60C9B1B781A0015E710239A4389
:1055A0000D92EFE60C9B1B78099361E60023994668
:1055B0000028AAD1002200231092119374E70C9BBB
:1055C0002200187859463B00A8474C468BE50C9AB8
:1055D000FA3BFF3B07329A430133994691444B46CD
:1055E0000C931368526815921A4306D110329043F7
:1055F00000220992002900D081E06122810600D5B5
:105600004122D2B20A9214AA91460A9A00210A3A79
:10561000149242461792524618925A460991B3463E
:105620001F311E000F9B4944BA4619941A95002455
:10563000674698468946159D16901B920AE03032BF
:10564000D2B24B4601341A55A8454AD0202C4AD034
:1056500006000D003A00002330002900FDF720FE6F
:10566000D2B2092AEBD9149B9C466244D2B2E8E735
:105670006123820600D54123DBB20A3B0C934346EB
:1056800014A91F228C46159353466244A046B24685
:105690004C461797A9461700099D0D9E1490169326
:1056A00008E03033DBB201343B55B5420ED3202C39
:1056B0000CD0050031002800FDF7B4FDCBB209295C
:1056C000EFD90C9A94466344DBB2ECE7159B4D4648
:1056D000A14644469846169B564614989A46179FEC
:1056E000D0E5B742B2D9179B57469846189B5E46FD
:1056F0009A461B9B09949B461698199C1A9D4346F3
:105700000593534604930D9B069003930023029345
:10571000099B05E70F9B984500D914E701330F93C8
:105720002DE41023110099430D91692800D0BAE0AF
:1057300080231000DB0018401A4200D122E61DE64B
:105740000C9B1B68DA0F1100002B00D18CE0DA17DC
:105750009818504014AA914642461F23149252466C
:105760004B44A046A946169704006546B2461F0062
:105770000C91159201E0202D0FD020000A21FDF799
:1057800051FD01357E193031317020000A21FDF7BD
:1057900049FD26000400092EEDD8149B4446984686
:1057A0000C9BAC461900159B56464D469A46169FD3
:1057B0000D9B0291069343460593534604930A2397
:1057C000039363463CE6002800D02EE602E60C9BDD
:1057D0001B689946002B03D110339843002938D118
:1057E0006123820600D54123DBB20A3B0C9343467A
:1057F0001693534614A91F228C4617932B0062441C
:10580000A0464D46B246189799461700149C0D9E27
:10581000159008E03033DBB201343B55B5420ED36E
:10582000202C0CD0050031002800FDF7FBFCCBB28A
:105830000929EFD90C9A94466344DBB2ECE7169B36
:10584000149444469846179B56464D469A461598DA
:10585000189F43460593534604930D9B069003936C
:1058600000230293149BEBE50028A1D172E70C9B67
:105870001B68D9175A184A40A6E580231000DB00A0
:1058800018409C460F901A420FD00220030013408C
:105890000F93104219D00023A1460F934CE50C9BA7
:1058A0001B680993E4E40A0034E402231800104062
:1058B0000D90134200D03EE54346002B00D042E657
:1058C000FFF771FB01330F937FE463460D93F3E71A
:1058D0000CB430B585B008AC08CC064D0A00009475
:1058E000010028000394FFF703FA05B030BC08BCA0
:1058F00002B018472940001010B50C0084B0039482
:10590000012402A902900093034813006242FFF7AA
:10591000EFF904B010BDC046BD42001010B5094AF1
:105920000300146884B0002C08D0012200910648BE
:10593000524203A9A047012004B010BD00F0B2F903
:105940000020F9E7A8370020AD42001000BEFDE7B7
:10595000094A03001068002805D00849C3188B4283
:1059600007D81360704706480449C31810608B427B
:10597000F7D901204042F5E7A433002000000420BD
:10598000207D022010B5FFF7E1FFC04670B5FDF79E
:10599000FDFA074D074EB54209D20024013E761BA1
:1059A000B60808CD984723000134B342F9D170BD41
:1059B0002CB6001038B60010030010B50800110016
:1059C0001B68984710BDC046F0B5C64600B5437D7C
:1059D00007000C001600002B46D0002A17DD0B78BC
:1059E0000A2B24D000239846012E13D0012529002C
:1059F000635C01350A2B26D0B542F8D1464509DC57
:105A0000A419013C23780D3B5A4253413B7580BC9D
:105A1000B846F0BD4346E018A419F11A013C3B68B2
:105A2000984723780D3B5A4253413B75EFE7037D7E
:105A3000002BD7D102210F483B689847012EDFD0B9
:105A400001239846D2E7631E5B5C0D2BD4D08845BA
:105A500004DA4346C91AE0183B6898470221054812
:105A60003B68A8469847C7E703681100200098479D
:105A7000CDE7C046B0C70010F0B5C6460B680600BB
:105A80000C0000B5802B06D05A1C2260E418267149
:105A900080BCB846F0BD0F4B1D68002D16D00B1D05
:105AA00098460D4F02E02D69002D0FD02B68002B7A
:105AB000F9D03B68002B01D0AB42F4D1280041461D
:105AC0002268FFF781FF2D69002DEFD1012200230D
:105AD000DBE7C0466433002070330020F0B5454654
