:020000041000EA
:1000000000B5324B212058609868022188439860DF
:10001000D860186158612E4B002199600221596106
:100020000121F02299502B49196001219960352056
:1000300000F044F80222904214D00621196600F024
:1000400034F8196E01211966002018661A6600F04E
:100050002CF8196E196E196E052000F02FF8012189
:100060000842F9D1002199601B49196000215960AB
:100070001A491B48016001219960EB211966A021F2
:10008000196600F012F800219960164914480160C1
:100090000121996001BC002800D000471248134993
:1000A000086003C880F30888084703B5996A0420EC
:1000B0000142FBD001200142F8D103BD02B5186610
:1000C0001866FFF7F2FF186E186E02BD00000240BE
:1000D000000000180000070000035F00212200005C
:1000E000F4000018222000A00001001008ED00E03C
:1000F00000000000000000000000000074B24E7A12
:1001000000200420F7010010CB010010CD010010E9
:10011000C9010010C9010010C9010010C901001077
:10012000C9010010C9010010C9010010351B0010E1
:10013000C9010010C9010010D11A00108D1B001058
:10014000C1010010C1010010C1010010C101001067
:10015000C1010010C1010010C1010010C101001057
:10016000C1010010C1010010C1010010C101001047
:10017000C1010010C1010010C1010010C101001037
:10018000C1010010C1010010C1010010C101001027
:10019000C1010010C1010010C1010010C101001017
:1001A000C1010010C1010010C1010010C101001007
:1001B000C1010010C1010010C1010010C1010010F7
:1001C000EFF30580103800BE00BE00BE00BE00BECA
:1001D00000BE00BEF2EB8871042B0010202B001033
:1001E0003802001090A31AE71E481F49086006C88D
:1001F00081F3088810471D480068002801D019487D
:10020000F3E70DA40ECC002902D000F012F8F9E7B4
:100210001749184A002000E001C19142FCD116495B
:100220008847164988471649884700BEFDE701C937
:1002300001C29A42FBD37047202B0010C00000205F
:1002400058030020B82D00100000042000000420F6
:10025000B82D001000100420001004200000000041
:10026000704700000000000008ED00E0000000D032
:1002700058030020D80A02200D180010D5020010E3
:1002800005180010F8B5C04606480749091A8B1032
:10029000C90FC91810B5491003D0044B002B00D06A
:1002A000984710BD580300205803002000000000AC
:1002B000054B10B5002B03D00449054800E000BFF2
:1002C000FFF7E2FF10BDC046000000004808002014
:1002D0001C2A001010B501F08DFBFA20C00000F0C0
:1002E00071FB044C200001F0D1FBFA20800000F0EB
:1002F00069FBF7E71C2A00100FB400B5084883B06B
:1003000001F0C4FB049B002B07D005A91800019144
:1003100001F05EFA034801F0B9FB012001F070FA28
:10032000242A0010342A001070B5EFF3108C72B636
:100330000D4D2B68002BFCD0BFF35F8F0724CB083B
:10034000C618C05C01230C40A3401C0004400342BB
:1003500007D118433070BFF35F8F2C608CF3108887
:1003600070BD1000FFF7C8FF2C0100D0044A1078C0
:10037000431CDBB2172B00D9102313707047C04603
:10038000B80100200021044B044ABFF35F8F02C371
:100390009342FAD17047C046000100D0800100D0DE
:1003A000054B064A1360064A136053609360D3609E
:1003B00013615361936170478080808000E400E0A6
:1003C00004E400E01F2318401E3B8340002905D0B1
:1003D000C021044A490053501360704780220149EC
:1003E0008B50FAE700E100E070B50D00EFF31086E6
:1003F00072B60F4A1368002BFCD0BFF35F8F0D4B12
:1004000010309B6884001B590B4A934203D09D42D5
:1004100001D000F09BFD074B9B681D51BFF35F8F20
:10042000BFF35F8F0022024B1A6086F3108870BD05
:10043000240100D000ED00E0C1010010024B9C46F9
:10044000614489000160704740000034F8B5124CE7
:10045000124DAC4212D20126002776422368002BAF
:100460000DD0FFF783FF01002000FFF7E7FF666074
:100470002772BFF35F8F0C34AC42EFD3F8BDFFF7A8
:1004800075FF01002000FFF7D9FF6660BFF35F8FA3
:100490000834AC42E2D3F1E74803002058030020BF
:1004A000F0B5DE4657464E464546E0B587B0EFF319
:1004B0000583032201251A40954091008846A946EC
:1004C000B34B03925C58B34B1D60B34B04934B4644
:1004D000B24843630823E55E002D37DAA3881BB2D8
:1004E000002B00DBADE0A379002B00D0EEE0082369
:1004F000E05E002820DB430062691B18DB00D31894
:100500009E68DD68731C00D111E1A44801004144DC
:10051000826A0B69B71A9B1A9F4215D30123026A9C
:10052000039883401A420FD09C4800F057FB8D423D
:1005300002DCCCD18642CAD940BF07B0F0BCBB4672
:10054000B246A946A046F0BD0E61EDE762696B00B8
:1005500092465B19DB009A4453469E68DF6800F0C0
:100560003DFB8F42BADC00D103E1002F00DAE8E066
:100570005246534652691B699346049A934200D1EE
:10058000D9E052460821605E528800045946104363
:100590009847009001910099019A0B0010001343B5
:1005A00000D1CEE013000A00B61A9F41002806DBF6
:1005B0007A4800F013FB009E019F36184F415346C6
:1005C0009E60DF6000229A5E002A00DA86E7530010
:1005D00099186069C900411802938B68C9689B46E5
:1005E000B94200DD7AE702D1B34200D976E70823A9
:1005F0009C46A444059565462281A446029B2C0096
:1006000006E053009918C90041188D68C968AB46C7
:100610009B18DB00C318B94206DC00D1B3E01C0014
:100620000023E25E002AECDA230064469C4653462F
:100630001A806346059D1D80A3881BB2002B00DA3B
:1006400051E72269EFF3108172B61368002BFCD0DA
:10065000BFF35F8F0123A7885B42A3803FB223696A
:10066000BFF35F8F00221A6081F31088002F00DA39
:1006700039E72300083322009A4666697B00DB19BC
:10068000DB00F318996850468C460824115FDD683A
:10069000002910DB029306E0AB4244D00023E15E68
:1006A0002000002906DB4C006418E4003419E368DC
:1006B000AB42F1DD029B078000201F5E1980002FF6
:1006C000DCDA1400A379002B00D110E70023A3711A
:1006D00026000823E15E08364B1C00D12CE70800F9
:1006E000A246656902E03E004B1C1AD04B005B1825
:1006F000DB00EF180A008C46E95E7B881BB2002BFA
:10070000F1DA01235B42DC17BB60FC60824205D05A
:10071000534631801B893B8053461A8160464B1CEF
:10072000E4D15446E5E6A3686345B7D9C2E76B1C3C
:1007300000D0EAE6F8E65B4658461B699847002871
:100740001BD153461B8822692381EFF3108372B6B5
:1007500011680029FCD0BFF35F8F514662880A8080
:1007600022696580BFF35F8F0021116083F31088D9
:10077000B4E6864200D8F8E6B0E65B461A685B68E5
:100780000092019307E7B34500D848E74CE7C0461D
:10079000600800203C700540A104001000400540A6
:1007A000074810B50268EFF3108172B61368002B8A
:1007B000FCD0BFF35F8F01F045FA0020002110BD8F
:1007C000680A002070B52E4C2569002D04D00A213E
:1007D0002C48FFF733FE70BD2B4E0321300000F094
:1007E000F3F9E660FFF7C2FD284B03229C46D023B5
:1007F00022701B061B6801216370254B6044A360B7
:100800000F23800020610220638063694942A18038
:1008100019800231198647311D83585218315A52B6
:1008200075325C39995218320131995218320131BE
:100830009952183201319952083518329D520231BD
:1008400018329952183201319952183201319952A5
:10085000183201319952183201319952183201314E
:1008600099520C4B0C49DC6001303562FFF7BCFD3E
:1008700001210320FFF7A6FD084B1D60A7E7C04636
:10088000BC010020680A0020004005404000003400
:10089000FFFF100060080020A10400103860054030
:1008A00070B501000469EFF3108C72B6206800285F
:1008B000FCD0BFF35F8F02200D5E4C6968004019C9
:1008C000C00024180869002D36DB26884E80BFF34F
:1008D0005F8F002606608CF31088E36063880498BD
:1008E000013320615B0405985B0CA26060611A1CF7
:1008F000002B1FD093B22804628018430A69EFF3DB
:10090000108C72B61368002BFCD0BFF35F8F8B88FE
:1009100023808D800B69BFF35F8F00221A608CF3F8
:1009200010880B7801329A40CB6808498C466344A2
:100930001A6070BD0122DDE7BFF35F8F0023036003
:100940008CF3108801204042F3E7C0463C200000B1
:1009500010B543890A1493421ADD53009B1842696B
:10096000DB00D3180469EFF3108C72B62268002AFA
:10097000FCD0BFF35F8F5A88090494B2090C8A42F5
:1009800008D00369BFF35F8F00221A608CF31088D0
:10099000002010BD8022120214435C8001230269F2
:1009A0008371BFF35F8F002111608CF310880449BD
:1009B00002788C469340C268012062441360E8E7E5
:1009C0003C200000F0B5CE46474680B583B0040019
:1009D00000F00CF9FA2206000F002000002300218D
:1009E000920000F07DFE8019794104000D1E02DAAC
:1009F00001242D4D644296267642F71736196F4131
:100A0000AF4215D812D000F0F1F832003B00121AB4
:100A10008B41002B18DC002B43D02000290000F074
:100A2000EFF803B0C0BCB946B046F0BDA642EAD963
:100A30000022002316001F0000F0D8F832003B000F
:100A4000121A8B41002BE6DD00F0D0F832003B009B
:100A5000121A8B41002B0ADB00230193134B320047
:100A6000009313483B00FFF71BFF0130D5D0114B1B
:100A7000B1469846104E736A9F4204D8B26A4A45FE
:100A8000CBD29F42C9D143461A68EFF3108172B6A8
:100A90001368002BFCD0BFF35F8F404601F09EF837
:100AA000E9E7002AB9D0CFE7FFFFFF7FA1070010D9
:100AB000BC010020680A002000400540F0B5574600
:100AC0004E46DE464546E0B506000F0085B0EFF322
:100AD000058399468B46002B12D0384900204B6A7B
:100AE000BB4206D38A6ADB1B591E8B41B24240418E
:100AF000184305B0F0BCBB46B246A946A046F0BDBF
:100B00002F4B9A46DB68984653461B784046039322
:100B100000F064F84246039B040004339B009B589A
:100B20000D001B1A39003000001BA941894510DC5B
:100B30000DD020BF214A0020536A5B45D9D3926A69
:100B4000DB1B591E8B41B24240411843D1E783421F
:100B5000EFD900F04BF832003B00121A8B41002B0A
:100B60001ADB00230193174B3200009350463B00E1
:100B7000FFF796FE011E0FDD104B5A6A5A451BD334
:100B80009B6AB34216D35046FFF7E2FE0B4A0020A1
:100B9000536A5B45ADD3D2E7084A0020536A5B45F0
:100BA000A7D30020926ADB1BB24240415A1E9341F8
:100BB00018439EE75A45E6D120BFE4E700400540D0
:100BC000BC010020A107001010B5024A0248FFF73F
:100BD000ABFB10BD382A0010100800200300416A4A
:100BE0000A00986A596A8A42FAD17047034B596AD7
:100BF0000A00986A596A9142FAD17047004005404C
:100C0000064A536A9942FCD807D1044B02E05A6A5B
:100C1000914202D19A6A9042F9D87047004005404B
:100C2000F8B5DE464E4657464546E0B58B460500CC
:100C30000A991800160000F0B3FA0A9B6C001F0214
:100C4000324B64199C46A4006444636881469F4209
:100C500000D967602B1FDBB29846012B30D9C02327
:100C600080229B01E31812011A60294BAD005959EB
:100C70009A4600291BD17301E026226853401E408A
:100C8000802342465B01E3181E60012A30D980238D
:100C900080229B01E31812011A6053464A4667609E
:100CA0005A51F0BCBB46B246A946A046F8BD5869A9
:100CB00000F076FA013043001B18033BFDD2DAE75F
:100CC0005B46012BCBD1C02303229B01E3181A60A2
:100CD000023AA3681A42FCD07301E0262268AD00F4
:100CE00053401E4080230A4A5B019246E3181E606F
:100CF0005A462168514003220A401A6001225B468D
:100D00009A40A3681A42FCD0C1E7C0460080004068
:100D100014080020F0B546464F46D646C0B51F0021
:100D2000344B44009C462418A400644463688846FD
:100D30001600FF2B02D880235B006360031FDBB229
:100D40009A46012B30D9C02380229B01E31812015F
:100D50001A60294B85005959994600291BD1730106
:100D6000E026226853401E40802352465B01E31870
:100D70001E60012A30D9802380229B01E3181201D2
:100D80001A6080235B0063604B465F51E0BCBA464B
:100D9000B146A846F0BD586900F002FA01304300A0
:100DA0001B18033BFDD2DAE74346012BCBD1C0230E
:100DB00003229B01E3181A60023AA3681A42FCD08E
:100DC0007301E0262268850053401E4080230A4AB2
:100DD0005B019146E3181E604246216851400322A0
:100DE0000A401A60012342469340A2681342FCD095
:100DF000C1E7C0460080004014080020014B80007D
:100E0000C058704714080020F8B5040021481E009F
:100E100017000D0000F0C4F90100380000F0C0F91F
:100E2000069B36041B031E432368002B20DB1A4B52
:100E30001A49E3185A1E93418022920194465B425C
:100E40001B0B174A1B0363441360164A13601F00F1
:100E50000A689743FBD1144B2560E2182123A06058
:100E600013602368002BFCDA0823E6601360F8BDEA
:100E70003F2322681340AB42D9D1A3681B051B0D49
:100E80008342D4D1EE22E368D2021340B342CED1E2
:100E9000EDE7C046001BB7000040FDBF08C00040A2
:100EA00000E0004000F00040043000008023024ACF
:100EB0009B000B43D362704700800540002310B5B0
:100EC0000100988A1B8B984710BDC046162310B5A9
:100ED0000100188802331B88984710BDF8B54746B3
:100EE000CE4680B50F1E18D0142399460433040053
:100EF0000025012698464B461888434621681B88E2
:100F0000984701C4431E984101350640AF42F2D1D3
:100F10003000C0BCB946B046F8BD0126F8E7C0466F
:100F2000AA23064A1B0113608D235B00D36004498A
:100F3000044B19605368002BFCDA704700400240F4
:100F400000B0FA00006002407047C04610B501488A
:100F5000FFF7D2F95C2A001070B5074D074EB54275
:100F600009D20024013E761BB60808CD984723001D
:100F70000134B342F9D170BDD8290010142A0010F1
:100F8000054B064A06491A60064A074B1A601000CC
:100F90000B689843FBD1704700E00040BFCDFBFEDB
:100FA00008C00040FE7F3C0000F00040044BDB6CBA
:100FB000002B03D18022034BD2021A607047C04637
:100FC000000011504C201150044A054B1A60054A8C
:100FD0001368DB018033FBD17047C046FFFFFF0180
:100FE00000F0004008C000404022034B9A675A6757
:100FF0001A67DA667047C04600F0014010B5FFF787
:10100000C1F910BDF8B52749274C284D641AA61020
:101010003200302E00D930222800920000F0CAFBA6
:10102000BC2C3BD830202F232C196407204A801B6E
:10103000E40F9B1B052B16D93700002C02D0B30000
:10104000771CEA50001B33199B004108EB18C900BC
:10105000C9181A605A6008339942FAD10123034231
:101060001CD09843C619B300EA50731C2F2E15D01C
:101070009B00EA50B31C2E2E10D09B00EA50F31CAC
:101080002D2E0BD09B00EA50331D2C2E06D09B003A
:10109000EA50731D2B2E01D09B00EA50054B9D603A
:1010A000F8BDC04600010010C00100100000002083
:1010B000C101001000ED00E0002310B5294C82B002
:1010C000A367FFF72DFF0122274B1A60636C012BEA
:1010D000FCD10322254B1A60224A936B012BFCD1D1
:1010E000013300930121224A22480433FFF78CFE8A
:1010F000052301210093204A2048FFF785FE0022A6
:10110000022104201E4BFFF705FE002201210520CD
:101110001C4BFFF7FFFD0022002107201A4BFFF7B1
:10112000F9FD002200210820174BFFF7F3FD802373
:10113000DB000093002200210920134BFFF770FD14
:101140000022104B00210620FFF7E4FD0420FFF7EA
:1011500055FE0E4900F024F801000020FFF7A6FE1E
:1011600002B010BD008000403CB0004030B00040F4
:10117000002F685900800240008C864700C0024062
:10118000001BB70040597307006CDC0240420F009F
:1011900001480421014B1847E0010020DD0E00103A
:1011A000114A936F9B0813D210665166002905D02F
:1011B000FFE7FFE7FFE7516F106F704704B50028A6
:1011C00001D00020C04301F0F7FB002104BDC04660
:1011D000F0B5146E556E576F166FFFF7E5FF146686
:1011E000556657671667F0BD000000D094464A4A1E
:1011F000926F9208624601D228E0C046F0B5464E92
:10120000346E756E776F366F00F020F89446424A60
:1012100014665566576716676246F0BD94463E4AA7
:10122000926F9208624601D254E0C046F0B53A4E41
:10123000346E756E776F366F00F04CF89446364A10
:1012400014665566576716676246F0BD002B24DBAF
:1012500011D000293EDA00B5C943404200D1013126
:1012600000F038F8C943404200D10131DB4352421B
:1012700000D1013300BD002AEBD1002801D10029A3
:1012800005D00020C90FC90701D1C043410800B5EE
:1012900001F08AFB0022002300BD00B500290ADB13
:1012A000DB43524200D1013300F014F8C9434042FD
:1012B00000D1013100BDC943404200D10131DB43BF
:1012C000524200D1013300F005F8DB43524200D115
:1012D000013300BD002923D1002B18D1002A0CD0E6
:1012E000BC460D4F38667A6600210023FFE7FFE712
:1012F000FFE77A6F386F67467047002801D00748CC
:10130000010000B501F050FB0022002300BD0200E7
:101310000B00002000217047000000D0FFFFFFFFFE
:10132000002B00D0BFE0130C28D1002AE7D080B4F6
:10133000114F39667A66FFE7FFE730B4040C7B6F24
:10134000396F1B0423433B667A66FFE7FFE7FFE73D
:10135000C04684B27B6F3D6F1B0423433B667A66B5
:10136000FFE7FFE7C04600232C042D0C7A6F386F8F
:1013700000196941B0BC7047000000D0F0B5944638
:101380000025140E01D112020835140F01D11201EB
:101390000435940F01D192000235D40F01D15200CF
:1013A0000135D40B0134254F7C66254C3C660E0C70
:1013B00093B2FFE7FFE7FFE73C6F6643360C770326
:1013C000BE467343DF0B5B04C01AB941130C734371
:1013D000DB18C91ACE086643360CB64493B2734381
:1013E0001F0F1B01C01AB941130C73431F0B1B05C0
:1013F000C01AB941860D8F023E436643360C092D53
:1014000024DB520A7243801A7703460A6643360C7D
:1014100016235B1BDE40DF40BF1964466643821B18
:101420007046043506330100D940A840C01900D3E6
:101430000131A24206D20023F0BD0000000000D01E
:10144000FFFFFFFF121B0130F3D3F1E709277F1BDA
:10145000FE406446A2B27243801A00D20139220CC7
:101460007243130C1204821A99410B007046043522
:1014700013370100F940A840801900D30131002B37
:1014800002D1A2420AD2F0BD013000D30131121BB9
:10149000FAD2013BF8D1A24200D2F0BD013000D314
:1014A0000131121BF7E7F0B51C0C00D080E00CB442
:1014B00000251C0A04D11B02160E33431202083504
:1014C0001C0B04D11B01160F3343120104359C0B76
:1014D00004D19B00960F334392000235DC0B02D1FE
:1014E00092185B4101351C00971864410134464F46
:1014F0007C66464C3C660E0CFFE7FFE7FFE7C04604
:101500003C6F6643360C7703BE4697B27743C01BE9
:1015100000D20139C01B00D201399FB27743C91BE9
:10152000C91B170C77437E04FF0B801BB941CE0803
:101530006643360C0C2D33DBB644120B1F053A43C1
:101540001B0B97B27743C01B00D201399FB2774380
:10155000C91B170C77433E043F0C801BB941860D15
:101560008F023E43664329277F1BFE400C3D774692
:10157000AF40BF1930BCA2B2ABB272437343801A02
:101580009941220C7243130C1204801A99410200F3
:101590000B000137001BA941F9D2781E0021F0BDD4
:1015A0000C277F1BFE4077467F0BAF40FF19E0E71B
:1015B00000245D1C07D0144F7D663966FFE7FFE706
:1015C000FFE7FFE73C6F95B29EB265436643401B61
:1015D000B141150C1E0C6543664336042F0C3E4387
:1015E0002D04401BB141994204D202000B0020009F
:1015F0000021F0BD01D19042F7D3801A9941013406
:101600009942F2D3F6E70000000000D0FFFFFFFF91
:10161000132370B51D78012D19D014DD1F48FFF775
:1016200055FC06001E48FFF751FC1E4C802231007D
:10163000200000F0BFF8022D2DD01B48FFF73EFC24
:101640001A4B186070BD1A4B164CA364F5E7184B83
:10165000144C23606360A360E36023616361A36152
:10166000E36123626362A362E36223636363A36350
:10167000E36323646364A364E36423656365A36530
:10168000E36523666366A366E36623676367A36710
:10169000E367A364D1E7064BA364CEE7534400009D
:1016A00053460000D80400204C330000640A002098
:1016B000B516001007B5604601880A0A0230DF2A15
:1016C000FAD1C9B2820804D30288408800041043CA
:1016D00000E00068014A5050039007BDD804002084
:1016E00051434343C9188C46110C83B24B4310B489
:1016F000040C614392B280B2504362431C041B0C41
:10170000001910BC59411304120CC0185141614416
:1017100070470000132310B512481C78FFF7D6FB62
:101720000100012C0AD003DD80220F4800F042F8AE
:101730000E48FFF7C3FB0E4B186010BD0A4C542235
:10174000200000F037F80B4B6365A365E365236663
:101750006366A366E36623676367A367E367236241
:10176000E361E5E753460000D80500204C33000054
:10177000640A00207917001007B5604601880A0A3C
:101780000230DF2AFAD1C9B2820804D30288408825
:101790000004104300E00068014A5050039007BD68
:1017A000D805002001480421014B1847F001002012
:1017B000DD0E0010014B5B6818470000F0010020AF
:1017C00010B5002800D110BD00F016F9FBE7C046A7
:1017D00010B5094A0300146884B0002C08D0012217
:1017E00000910648524203A9A047012004B010BD51
:1017F00000F04CF90020F9E744080020C117001060
:1018000000BEFDE710B5FFF7FBFFC04670B5FFF760
:10181000A3FB074D074EB54209D20024013E761BBB
:10182000B60808CD984723000134B342F9D170BD02
:10183000142A00101C2A0010030010B50800110023
:101840001B68984710BDC046F0B5C64600B5437D3D
:1018500007000C001600002B46D0002A17DD0B787D
:101860000A2B24D000239846012E13D001252900ED
:10187000635C01350A2B26D0B542F8D1464509DC18
:10188000A419013C23780D3B5A4253413B7580BC5F
:10189000B846F0BD4346E018A419F11A013C3B6874
:1018A000984723780D3B5A4253413B75EFE7037D40
:1018B000002BD7D102210F483B689847012EDFD07B
:1018C00001239846D2E7631E5B5C0D2BD4D088457C
:1018D00004DA4346C91AE0183B68984702210548D4
:1018E0003B68A8469847C7E703681100200098475F
:1018F000CDE7C046002B0010F0B54546DE464E460B
:101900005746E0B583B091461C0080460D00FFF7B6
:101910006DF90023304A12184B41002B02DA0122E4
:101920002E4B52422E4908008A4601F04DF807001E
:101930006B1C03D1404600F0FFFF0500002C27D0B0
:10194000284E294B1C68002C18D04B46002B21D167
:10195000264B994602E02469002C0FD02368002B07
:10196000F9D04B461B68002B01D09C42F3D12000DC
:101970002A004146B0472469002CEFD1002F26D120
:10198000280003B0F0BCBB46B246A946A046F0BD55
:10199000174ED6E7154B99460A239B4602E0246969
:1019A000002CEBD02368002BF9D04B461B68002B92
:1019B00001D0A342F3D12A0041462000B0476B4634
:1019C0005A462000DA71D91D0122B047E7E7504698
:1019D00000F0E2FFD4E7C04640420F00FFFFFF7F68
:1019E00050030020491800103C0800204008002047
:1019F0003918001000207047F0B5CE46474680B534
:101A000083B06B460600DD1D2870FFF7EFF800235A
:101A1000194A12184B41002B02DA0122174B52428D
:101A200017490800884600F0CFFF164B81461C6816
:101A3000002C14D0144F02E02469002C0FD023682E
:101A4000002BF9D03B68002B01D09C42F4D1200040
:101A500001222900FFF7F8FE2469002CEFD14B4644
:101A6000002B05D1300003B0C0BCB946B046F0BD74
:101A7000404600F091FFF5E740420F00FFFFFF7F77
:101A8000500300203C0800204008002070B50400EE
:101A900000F052FF01230100050001222000FFF7A2
:101AA0002BFF084B1C68002C06D06368002B05D068
:101AB00098472469002CF8D1280070BD2469002CB7
:101AC000F3D1F9E73C08002000000000000000000E
:101AD000EFF30980164B1A6820381060F0C04446B6
:101AE0004D4656465F46F0C00D221207146E556EE5
:101AF000566F176F3038F0C008B572B600F010FDA1
:101B000062B60CBC116808681030F0C8A046A9463F
:101B1000B246BB4680F309880D2212073038F0C860
:101B20001466556656671767F0C81847C046C04622
:101B3000740800207047C0468022044B52051A608A
:101B4000BFF34F8FBFF36F8F7047C04604ED00E0C7
:101B500072B6044A136801331360BFF34F8FBFF3AB
:101B60006F8F70476C0A0220034A1368013B1360B1
:101B7000002B00D162B670476C0A0220EFF3108090
:101B800072B6704780F310887047C04610B5FFF7F3
:101B9000F5FF040000F0B2FC002803D08022034BC4
:101BA00052051A602000FFF7EDFF10BD04ED00E0C4
:101BB000D02310B51B061868074B1B78834200D052
:101BC00010BDEFF30583002B02D05B00C018F7E7D0
:101BD00000F0F8FDF4E7C0460002002010B5030055
:101BE0000268154882B00478D0200006006884425C
:101BF00008D0BFF35F8F0023136081F3108820BFEC
:101C000002B010BDBFF35F8F0020106081F3108819
:101C10000A4A1B6810680A4A944663449A105C2B6F
:101C200000D9183A012301215B429140009301221F
:101C3000002300F04DF9E3E700020020800A0220B3
:101C400000FFFF2F0A002B4930B58C46036883B094
:101C500063449C105C2B00D9183C0121264BA14009
:101C60001C78D0231B061B689C421FD040BF234D0D
:101C700003682C68A34234D02368002BFCD0BFF348
:101C80005F8F1F4C23680B4323602B68BFF35F8F6C
:101C9000002119600368D020002100064165BFF3D0
:101CA0005F8F196082F3108803B030BD40BF0368B6
:101CB000BFF35F8F00241C6082F31088EFF305836D
:101CC000104ADBB21068002B10D001AA019400F07A
:101CD000A9F9019B002BE7D080220B4B52051A601B
:101CE000E2E7074C206808432060D4E700F04CF995
:101CF000DAE7C04600FFFF2F000200207008002036
:101D0000700A0220800A022004ED00E0F0B5CE4601
:101D1000474680B51D00344B14001A78D0231B06AB
:101D20001B688046894683B09A420FD00368BFF390
:101D30005F8F00221A6081F3108820002900FEF7CF
:101D4000BDFE03B0C0BCB946B046F0BDFEF74EFFC5
:101D500026002F00361A8F4101212448494280195C
:101D6000794143461E6800291EDC19D0BFF35F8FFE
:101D70000023336089F310881D4B5A6A954205D8B9
:101D80009B6A0120A342DCD29542DAD18022194B12
:101D900052051A60BFF34F8FBFF36F8F0020D0E75B
:101DA000FA239B009842E1D3FA2200239200FFF726
:101DB0001DFA031EDAD0BFF35F8F0022326089F371
:101DC00010880D4A0D49106842468C4612686244DC
:101DD00096105C2A00D9183E01210093B1400023DF
:101DE000012200F075F8C7E70002002018FCFFFF91
:101DF0000040054004ED00E0800A022000FFFF2FB4
:101E000010B5FEF7B3FA054A054B944660448000CE
:101E1000186000F051F8034B186010BD400000340A
:101E200070080020800A0220F8B5DE4657464E466C
:101E30004546E0B505000F00060000F08DFA296860
:101E40002C6939430C362960A6422CD000239846D1
:101E50008023DB049B4680235B049A4680239B04FB
:101E600099460FE06746002F0AD057463A4202D003
:101E700042461A4390464B46194300F059FC2968E4
:101E8000A6420ED020000F000268646813021B0AED
:101E90001F40BC465F463A42E4D06345E5D0A642C7
:101EA000F0D143469943296000F05EFAF0BCBB468E
:101EB000B246A946A046F8BD10B5182000F0AAFC0D
:101EC000041E03D0002308C000F0B8F8200010BDA5
:101ED000F0B5C6460D00060000B51F00904600F0A4
:101EE0003BFA2B0034682340002F0DD1002B28D063
:101EF0004346002B28D02300AB43336000F034FA74
:101F0000200080BCB846F0BD9D42F1D0069B002B5E
:101F10001AD0434680215A1E9341C9041B06194317
:101F2000069A2943301D00F03BFB00F01DFA002803
:101F300024D000F04DFC040083010DD52402240AB6
:101F4000DEE7069B002B02D100F00EFAD8E74146EF
:101F50004B1E99410906E3E7FFF7FAFD34682300B9
:101F60002B40002F0DD1002B05D04346002B02D073
:101F70002300AB433360FFF7F7FDDFE7FFF7DCFD3E
:101F8000D7E7AB42F7D1F0E7F0B5DE4657464E460D
:101F900045460400E0B583B00D000600019000F056
:101FA000DBF92200136824690C361D4337001560E5
:101FB000A6422BD0002399468023DB049846802339
:101FC0005B049B4680239B049A460FE000290BD0BC
:101FD00059460A4202D04A461A439146514629437D
:101FE00000F0A6FB019B1D68A7420DD02000290030
:101FF00046460268646813021B0A19403242E5D063
:102000008B42E5D0A742F1D14B469D43019B1D6019
:1020100000F0AAF9280003B0F0BCBB46B246A946BE
:10202000A046F0BD10B5044C13000A0001002000CA
:1020300000F0DAFB10BDC046291E00100300083373
:1020400001224360C3600361002352428260036047
:102050007047C046030030B50D6808336A1C0DD0C8
:102060001C005B681A68AA42FAD94B609960036841
:102070008C60013361600861036030BD046963688E
:10208000F3E7C0460369416882688A605160596815
:10209000814205D00022026118680138186070473B
:1020A0005A60F7E7F0B54F46D64646460400C0B53D
:1020B00091461E000F00FFF761FDA26BE36B050068
:1020C0009A4221D300239846022E08D02800FFF719
:1020D00059FD4046E0BCBA46B146A846F0BD45337E
:1020E000E35C226C5BB29846A36BA36B9A46002A12
:1020F00032D10133A3634346013321D1636A002BFC
:102100003DD101239846E1E74523E35C226C5BB2B5
:102110009846A36BA36B9A46002AEAD0002E3BD1C7
:1021200039006068FFF746FB6268236CA168D2182B
:102130005346626001338A42DCD322686260D9E789
:1021400000F0D6F98045DCD24346452201335BB22C
:10215000A35401239846B9E73900E068FFF72AFB4A
:10216000226CE36851429B1A2268E360934202D2D8
:10217000A3685B18E3605346002BBBD1B9E720008E
:10218000243000F06FFA0028BBD04B46002BB8D0AB
:1021900001234A461360B4E73900E068FFF70AFB01
:1021A000226CE36851429B1A2268E360934204D395
:1021B000022EE0D0534601339CE7A3685B18E3602E
:1021C000F6E7C046F0B5DE4657464E464546594B03
:1021D000E0B51A6883B0013294461A60002A5FD0D5
:1021E00055490B689C4570D3544B99461B681B6836
:1021F000002B00D198E000239846514B514E9B464E
:10220000514B01919A4639E0002159611168013919
:1022100011609A6A002A0ED0D969186A55688860D8
:102220004160190018318D4200D173E0002199629C
:102230001168013911605246D96A1268914201D978
:10224000524611608A0052189200B5186868876873
:102250009860DF607C6084605D61B3580133B35087
:102260005B461B684246DB6A8B429B415B421A43DA
:102270004B461B6890461B68002B50D04B461B6892
:10228000DB68DB685A68944546D35A699868D96810
:102290001C1D816048605068A042B5D15160B3E711
:1022A000264B2A4A196810681860116028490A6884
:1022B00001320A601A681268002A25D101231E49DA
:1022C0005B420B600B689C458ED2002398461C4BEA
:1022D0001C4E9B465B4601201B681E4AD96A126849
:1022E0008B005B189B00F3589842804113005A1EE4
:1022F0009341404218434346184303B0F0BCBB46E9
:10230000B246A946A046F0BD1B680B49DB681B68B6
:102310000B6066E7506089E701990A60DAE7019986
:1023200001235B420B60D5E79846054B054E9B4663
:10233000F6E7C046CC0A02208C0A0220780800206A
:1023400074080020840800207C0A022080080020F5
:10235000900A0220D40A0220024A13680133136053
:102360007047C046780A0220F0B5DE4657464E4612
:102370004546E0B583B0FFF7EBFB534C2368013BC8
:1023800023602368002B00D081E0504B1B68002B9A
:102390007DD04F4B9C461B68002B00D190E04D4BED
:1023A0004D4D98464D4B019499464D4B9A4600230E
:1023B0009B466346DB68DB68D869196A9A6A816064
:1023C0004860180056681830864200D172E05946BD
:1023D00099621168013911605A699868D96856681C
:1023E00081604860181D864262D011680139116011
:1023F0004146DA6A09688A4201D941460A60910079
:1024000089188C002E1971688F689960DF60786078
:1024100088605E612B5901332B514B461B68DB6A88
:102420009A423FD9534601221A6063461B68002B2B
:10243000BFD12C4B019C1A681268002A3CD01B6843
:10244000DB681A68284B1A60284E3568002D14D0B6
:10245000012708E0FFF7B6FE002801D053461F60B1
:10246000013D002D08D02368002BF3D03368013DD7
:1024700001333360002DF6D1356053461B68002BC5
:1024800005D0164B01241B68FFF756FB00E0002423
:10249000FFF76AFB200003B0F0BCBB46B246A9467A
:1024A000A046F0BD63461B68002B00D081E7C0E763
:1024B00051609AE751608AE70B4B013A1A60C3E713
:1024C000074B9A46C0E7C046780A0220740A0220E9
:1024D0009C0A02207C0A0220840800207408002044
:1024E000D40A0220780800208C0A0220980A0220D0
:1024F000014B18687047C046740A0220064B10B59D
:102500001B68002B02D1FFF75DFE10BD034A0020BF
:10251000136801331360F8E7780A0220980A022052
:10252000194B30B51B68002B03D00122174B1A60E2
:1025300030BD164A164C13602268164891008B185D
:102540009B00C558002D07D1143BC3181968143BD4
:10255000013A0029FAD091008918890045186B6862
:1025600008315B6840186B60834209D0D9680A4B18
:10257000196022601A681B68084A58331360D7E74D
:10258000EB686B60F2E7C046780A0220D40A0220AA
:102590007C0A022084080020740800200402002025
:1025A0008023F0B5C646294C15001B0622680B4354
:1025B00000B59361226843689968D361226811620B
:1025C000226818324A602268002118329A60236813
:1025D00098620368013303601D4B1E681D4B1F6822
:1025E0001D4B1B6822689846A8232068FF33D154EE
:1025F0000430FFF747FD6B1C15D023682168AD1927
:102600005D600431AE4205D94046FFF723FD80BC32
:10261000B846F0BD3800FFF71DFD104B1A68954213
:10262000F5D21D60F3E70E4B21685A688A60906806
:102630002168C860216804314160216804319160DB
:10264000226853611A6801321A60E0E774080020BA
:10265000CC0A022078080020800800208C0A022082
:10266000B80A0220C368F0B5DB68D869196A9A6AAB
:1026700081604860180054681830844241D00021BD
:102680009962116801391160234AD96A1268002AD7
:1026900029D15A699C68D8681D1DA060446054689F
:1026A000AC4230D01068013810601C4A1068884273
:1026B00025D38A001A485218920086187468A768B1
:1026C0009C60DF607D60A5605E618358013383504C
:1026D000144B00201B68DB6A8B4203D20122124B91
:1026E00001301A60F0BD114A5468A568DC611D62B2
:1026F0006860A0609A62136801331360E8E71160B4
:10270000D7E75160BBE75060106801381060034A9A
:1027100010688842CDD2F2E7780A02207C0A0220B3
:102720008408002074080020D40A02209C0A022099
:1027300080231B06F0B5026944680B43816803607F
:10274000C368A1604C60546884422ED000210161AE
:1027500011689868013911605A69D9681D1D816036
:1027600048605068A84222D0116801391160114AAE
:10277000D96A1068814200D911608A000E48521847
:10278000920086187468A7689C60DF607D60A56011
:102790005E61835801338350084B1B68DB6A9942A2
:1027A00002D90122064B1A60F0BD5160CEE751609C
:1027B000DAE7C0467C0A0220840800207408002062
:1027C000D40A0220014B18687047C04674080020E4
:1027D000044B1A68196890691A681823C96A5B1A49
:1027E000936170477408002030B514001A0002236A
:1027F0000D0085B05B420093054B01906946186857
:10280000002302950394FFF74DFC05B030BDC04690
:10281000D00A0220F0B5C646431E00B50A3314D8CC
:10282000072304001A000834224023426CD013000E
:10283000093BA34209D31030841AFFF78DFD374AB4
:1028400027001568002D28D10EE0FFF785FD334ADB
:102850001368002B06D00025FFF786FD280080BCFA
:10286000B846F0BD0027002407202D4D2B0029007D
:10287000284245D100202B4E706031602A4EB4466C
:1028800007266544B5431560284AEB1A1360284AA9
:102890006860286013604B600D60002FDBDD244F03
:1028A0003E68A642D7D31F48036804E01A68002A8E
:1028B00004D0180013005968A142F7D3AB42CAD024
:1028C0001D001A680835904602600A1B102A05D9B7
:1028D00019194A6042460A6001602100134A761ABB
:1028E00010683E60864200D21660802212060A43BB
:1028F0005A6000221A600F4A136801331360ABE775
:10290000EB1D83431900B5E7FFF726FD034A2700B7
:102910001568002DA8D0002CC1DA9CE77C080020A7
:102920006C0A0020B00A0220F8FF0100880A022089
:10293000840A0220940A022010B583070AD00300FB
:10294000032102E001330B4205D01A78002AF9D1A5
:10295000181A10BD030019680C4A0D4C8A188A43D6
:1029600022420FD15968094A04338A188A43224205
:1029700008D15968054A04338A188A432242F1D0A3
:1029800000E001331A78002AFBD1E1E7FFFEFEFEEA
:1029900080808080F8B5C04601B40248844601BCFE
:1029A000604700BF6101002001B40248844601BCB9
:1029B000604700BF8101002001B40248844601BC89
:1029C000604700BF8101002001B40248844601BC79
:1029D000604700BFC1000020810F0010AD0F001044
:1029E00091110010A51700101116001015170010F6
:1029F000B9100010C90F0010E90F0010FD0F0010F2
:102A00004D04001005100010C5070010490F0010FC
:0C2A1000A1030010B1020010011E001014
:102A1C0068656C6C6F0000000A2A2A2A2050414E0F
:102A2C004943202A2A2A0A000A00000048617264DD
:102A3C007761726520616C61726D20256420616C18
:102A4C00726561647920636C61696D656400000076
:102A5C0048617264206173736572740052656C65B1
:102A6C0061736500626F6F74325F77323571303825
:102A7C0030000000322E322E300000007069636F7F
:102A8C000000000072703230343070726F6A65630F
:102A9C00740000004D61792032382032303236001B
:102AAC0006005250D3F07542682A001006005250AE
:102ABC00E182887F702A001006005250ABB360533D
:102ACC00802A001006005250BBFF3CB6882A00102A
:102ADC0006005250861C0302902A00100600525029
:102AEC005422A29DA02A001005005250DE65F46805
:082AFC00B82D00100D0A0000C6
:102B0400AC2A0010B82A0010C42A0010D02A0010E1
:0C2B1400DC2A0010E82A0010F42A00104F
:102B2000F0B5C646160000B504001F000268EFF3BA
:102B3000108872B61368002BFCD0BFF35F8F6568F6
:102B40006B1C0ED02368BFF35F8F00221A6088F3DE
:102B5000108800F049F8A8420FD1002080BCB84688
:102B6000F0BD00F041F823686060BFF35F8F002282
:102B70001A6088F310880120F0E700F035F88046ED
:102B800006E032003B00200000F03EF80028E4D1CF
:102B90002268EFF3108172B61368002BFCD0BFF3EC
:102BA0005F8F65680135ECD1434663602368BFF3EE
:102BB0005F8F00221A6081F310880120CEE7C046A3
:102BC00010B50268EFF3108172B61368002BFCD0C9
:102BD000BFF35F8F01235B42436000F00DF810BD2F
:102BE0007047C0460000000001B40248844601BCA2
:102BF000604700BFB11B001001B40248844601BC0D
:102C0000604700BF451C001001B40248844601BC67
:102C1000604700BF0D1D0010100000000000000004
:102C200000000000000000000000000000000000A4
:102C30005803002000000000000000000000000019
:102C4000503300004C330000543300005233000076
:102C50004D5300004D430000533400004334000046
:102C6000FF0000000802002000000000D80600203D
:102C700040070020A807002000000000000000001E
:102C80000000000000000000000000000000000044
:102C90000000000000000000000000000000000034
:102CA0000000000000000000000000000000000024
:102CB0000000000000000000000000000000000014
:102CC0000000000000000000000000000000000004
:102CD00000000000000000000000000000000000F4
:102CE00000000000000000000000000000000000E4
:102CF00000000000000000000000000000000000D4
:102D000001000000000000000E33CDAB34126DE670
:102D1000ECDE05000B0000000000000000000000D9
:102D200000000000000000000000000000000000A3
:102D30000000000000000000000000000000000093
:102D40000000000000000000000000000000000083
:102D50000000000000000000000000000000000073
:102D60000000000000000000000000000000000063
:102D70000000000000000000000000000000000053
:102D80000000000000000000000000000000000043
:102D90000000000000000000000000000000000033
:102DA0000000000000000000000000000000000023
:082DB00000000000000000001B
:04000005100001E9FD
:00000001FF
